:100000000C94CC010C94F4010C94F4010C94F401C4
:100010000C94F4010C94F4010C94F4010C94F4018C
:100020000C94F4010C940F130C94000C0C94690CB8
:100030000C94F4010C94F4010C94F4010C94F4016C
:100040000C94F4010C94F4010C94F4010C94F4015C
:100050000C94F4010C94F4010C94F4010C94C5126A
:100060000C94F4010C94F4010C94F4010C94F4013C
:100070000C94F4010C94F4010C94F4010C94F4012C
:100080000C94F4010C94F4010C94F4010C94F4011C
:100090000C9419130C94F4010C94F4010C94F401D5
:1000A0000C94F4010C94F4010C94F401590F5C0FBE
:1000B0004B0F4F0F550F7D0F7D0F7D0F600F640F9E
:1000C000680F6E0F720F7D0F780F084AD73B3BCE3B
:1000D000016E84BCBFFDC12F3D6C74319ABD568347
:1000E0003DDA3D00C77F11BED9E4BB4C3E916BAAFF
:1000F000AABE000000803F05A84CCDB2D44EB9384E
:1001000036A9020C50B9918688083CA6AAAA2ABE34
:10011000000000803F000A3C2D20000A3C2D2000FA
:10012000080B0002020201000904000001020200A3
:100130000005240010010524010101042402060524
:100140002406000107058103100040090401000294
:100150000A00000007050202400000070583024074
:100160000000040309044164616672756974004605
:1001700065617468657220333275340012010002C3
:10018000000000409A230C800001010203011201CB
:100190000002EF0201409A230C80000101020301DA
:1001A000070605040100080A0B0C0D0900000000F9
:1001B000250028002B002E00310000000000230045
:1001C000260029002C002F000000000200090F006B
:1001D00000030401000C000000000000000000000B
:1001E0000000000000000000000000240027002A9A
:1001F000002D003000040802011040804010204013
:10020000804080080204018040201002011080100C
:1002100020404020040404040403040502020202F6
:10022000040302020202060606060606040402028F
:1002300002040441542B464143544F5259524553F2
:100240004554004154450041542B474150474554C3
:10025000434F4E4E0041542B424C45504F57455250
:100260004C4556454C3D340041542B474150494E76
:1002700054455256414C533D31352C3137302C3199
:10028000352C38350041542B4741504445564E419A
:100290004D453D4C49474E554D0000407A10F35AAC
:1002A00000A0724E18090010A5D4E80000E87648B6
:1002B000170000E40B54020000CA9A3B000000E162
:1002C000F505000080969800000040420F000000F5
:1002D000A08601000000102700000000E8030000D5
:1002E00000006400000000000A000000000001009F
:1002F000000000002C76D888DC674F0823DFC1DFC0
:10030000AE59E1B1B796E5E3E453C63AE6519976C2
:1003100096E8E6C28426EB898C9B62ED407C6FFCFC
:10032000EFBC9C9F40F2BAA56FA5F490055A2AF73E
:100330005C936B6CF9676DC11BFCE0E40D47FEF547
:1003400020E6B500D0ED902E0300943577050080AF
:10035000841E080000204E0A000000C80C3333330E
:10036000330F986E12831141EF8D2114893BE655AE
:1003700016CFFEE6DB18D1844B381BF77C1D901D91
:10038000A4BBE424203284725E228100C9F124ECF3
:10039000A1E53D27961E721811241FBECFEFDAE0AB
:1003A000DEBFCDBF11E0A0E0B1E0E4E2F3E502C0C2
:1003B00005900D92AA3EB107D9F724E0AAEEB1E06C
:1003C00001C01D92AC36B207E1F711E0CBECD1E0F1
:1003D00004C02197FE010E94531FCA3CD107C9F7F0
:1003E0000E94B3180C9485290C940000FC01EF5472
:1003F000FF4F178216821186108613861286089583
:10040000623030F4FC012485261721F0648702C095
:1004100080E0089581E0089508958CBD9DBD089504
:100420000895CF93DF93EC012E813F818A819B81D8
:100430002817390719F48D81882359F14C8150E030
:1004400028853985429FC001439F900D529F900D92
:10045000112428813981820F931F0E94A623888549
:1004600099852A813B810196B9010E943F1F998796
:1004700088878E819F818217930729F488859985C3
:100480009B878A8705C08E819F8101969F838E837B
:1004900081E0DF91CF910895CF92DF92EF92FF92AA
:1004A0000F931F93CF93DF931F92CDB7DEB7FC015D
:1004B000348521E0231B248721E3231B29838C011E
:1004C0000F541F4FBE016F5F7F4FC8010E94110282
:1004D00086E0E82EF12C91E8C92E91E0D92EB601E4
:1004E000C8010E941102882341F0F8018481C80EDE
:1004F000D11CF1E0EF1AF10891F70F90DF91CF9145
:100500001F910F91FF90EF90DF90CF9008958F9201
:100510009F92AF92BF92CF92DF92EF92FF920F9392
:100520001F93CF93DF937C012DE5E20EF11CF701C1
:1005300020812F3F39F46EBD00000DB407FEFDCFC2
:100540008EB536C0D62F27E0822E912CC0E0CC2469
:10055000C394D12C5C01FEE5AF0EB11C8C01015A95
:100560001F4FCC0F60E0F70180810E94E910B601B7
:10057000082C01C0660F0A94EAF76D23F50180810B
:100580000E94E91061E0F70180810E94E910F80102
:1005900080810E94C010892B09F0C160F1E08F1AA0
:1005A0009108F8F660E0F70180810E94E9108C2F35
:1005B000DF91CF911F910F91FF90EF90DF90CF903F
:1005C000BF90AF909F908F900895EF92FF920F93FE
:1005D0001F93CF93DF937C01EB018B01040F151F59
:1005E000C017D10731F06881C7010E948702899343
:1005F000F7CFDF91CF911F910F91FF90EF9008956A
:10060000CF92DF92EF92FF92CF93DF93EC010E94A3
:10061000BA11C880D980EA80FB80DC01CB018C193B
:100620009D09AE09BF0921E0CC80DD80EE80FF800E
:100630008C159D05AE05BF0508F420E0822FDF91E3
:10064000CF91FF90EF90DF90CF9008952F923F923F
:100650004F925F926F927F928F929F92AF92BF92D2
:10066000CF92DF92EF92FF920F931F93CF93DF937E
:10067000CDB7DEB7A1970FB6F894DEBF0FBECDBFE2
:100680008C015C0181EBA80EB11CFE013196FE8F3E
:10069000ED8FC801855A9F4F98A38F8F18019DE554
:1006A000290E311C6801EAE5CE0ED11C90E6892E98
:1006B000912CF5012681378182819381821B930BD6
:1006C000409708F478C084E1ED8DFE8D11928A95F3
:1006D000E9F7F8014480558066807780440C551C0A
:1006E000661C771C0E94BA116D8B7E8B8F8B988F46
:1006F000498E5A8E6B8E7C8EEF8DF8A180810E9480
:10070000C010892B41F4CE0145960E940003882336
:1007100099F320E0B4C0F10180818F3F31F48091E2
:100720006B0390916C030E940D0260E0F6018081E2
:100730000E94E910F80144805580668077800E940D
:10074000BA116D8B7E8B8F8B988F498E5A8E6B8EE4
:100750007C8ECE0145960E940003811128C06FEF68
:10076000C8010E94870289838E3F11F08F3F69F490
:1007700061E0F60180810E94E910C4010197F1F760
:1007800060E0F60180810E94E91089818E5F8230ED
:1007900000F30DC0803889F0CE0145960E94000319
:1007A00081110BC06FEFC8010E9487028983898184
:1007B000803281F702C021E062C0CE0145960E94DE
:1007C0000003811113C08FEF9FEFAFEF8A839B83EC
:1007D000AC8343E050E0BE016E5F7F4FC8010E94D2
:1007E000E5028A812B819981903811F4F12C1DC08A
:1007F00090E0922B9A500397C8F78C818F77E82E60
:10080000F12CF1E1EF16F1048CF7A7016FEF70E026
:10081000CE0105960E94AF23A701BE016B5F7F4FFB
:10082000C8010E94E502FF24F39461E0F601808193
:100830000E94E9102F2DFF2011F18C818F7721F478
:100840008C8187FD36CF1BC0E82EF12C2E01F5E000
:100850004F0E511C612C712CB201C50129A30E94BD
:10086000110229A1882361F3FFEF6F1A7F0AF501B6
:100870008481480E511C6E147F0410F7EDCF822F37
:10088000A1960FB6F894DEBF0FBECDBFDF91CF911A
:100890001F910F91FF90EF90DF90CF90BF90AF909E
:1008A0009F908F907F906F905F904F903F902F9090
:1008B00008950C9432220C9432228F929F92AF9220
:1008C000BF92CF92DF92EF92FF920F931F93CF933D
:1008D000DF93CDB7DEB76E970FB6F894DEBF0FBECD
:1008E000CDBF7C016A01122F01110BC0DC01ED911B
:1008F000FC910284F385E02D6D8F7E8F09957E8DAE
:100900006D8D80E189837B836A838C818078912FD0
:100910009F77892B8C83103111F4017001C000E0A6
:100920008C8100FB87F98C83C114D10449F0112319
:1009300039F0412F50E0B601CE0105960E94A62362
:10094000F701E35AFF4F80818F3F31F480916B03B1
:1009500090916C030E940D026701BAE5CB0ED11C89
:1009600060E0F60180810E94E910D70114968D9015
:100970009D90AD90BC9017970E94BA116D8B7E8BA5
:100980008F8B988F898E9A8EAB8EBC8E80E6A82E28
:10099000B12C6981C7010E9487028E3F31F4CE01DC
:1009A00045960E940003882391F0CE0145960E944F
:1009B000000301E00827C9F0412F50E04D5F5F4F71
:1009C000BE016E5F7F4FC7010E94E5020EC061E06D
:1009D000D6018C910E94E910C5010197F1F760E002
:1009E000F60180810E94E910D4CF61E0F601808198
:1009F0000E94E910802F6E960FB6F894DEBF0FBEEE
:100A0000CDBFDF91CF911F910F91FF90EF90DF90BD
:100A1000CF90BF90AF909F908F900895CF92DF922C
:100A2000EF92FF920F93CF93DF931F92CDB7DEB774
:100A30006C017C0181EBE80EF11CF7018681978146
:100A4000892BB1F0448150E022853385429FC0015B
:100A5000439F900D529F900D112460817181680F0A
:100A6000791FCE0101960E94A623898190E020C0C3
:100A7000F601848581110AC000E020E040E050E0EA
:100A800062E07AE0C6010E945D0408C0F601E55A02
:100A9000FF4F80810E94C010892B19F0C6010E946F
:100AA0002603F70186819781892B61F68FEF9FEFEF
:100AB0000F90DF91CF910F91FF90EF90DF90CF904B
:100AC0000895CF92DF92EF92FF920F93CF93DF932F
:100AD0001F92CDB7DEB76C017C0181EBE80EF11CF3
:100AE000F70186819781892B49F186819781892B2E
:100AF00011F1448150E022853385429FC001439F1C
:100B0000900D529F900D112460817181680F791FA3
:100B1000CE0101960E94A623F70182859385019656
:100B2000628173810E943F1F9387828786819781AC
:100B3000019797838683898190E021C0F60184859F
:100B400081110AC000E020E040E050E062E07AE07D
:100B5000C6010E945D0408C0F601E55AFF4F80817E
:100B60000E94C010892B19F0C6010E942603F701CC
:100B700086819781892B09F0BCCF8FEF9FEF0F9073
:100B8000DF91CF910F91FF90EF90DF90CF9008957C
:100B9000EF92FF920F93CF93DF937C0121EBE20E54
:100BA000F11CF70126813781232B81F4FC01248578
:100BB000211114C0EC0100E040E050E062E07AE076
:100BC0000E945D04CE010E942603F7018681978171
:100BD000DF91CF910F91FF90EF900895FC01E55ABE
:100BE000FF4F8081DF91CF910F91FF90EF900C9498
:100BF000C0108F929F92AF92BF92CF92DF92EF92EE
:100C0000FF920F93CF93DF935C017B01EA01DC013C
:100C10001C968C91882329F0C60FD71FC12CD12C8C
:100C200039C04330510590F043E050E068E871E08E
:100C3000C7010E949923892B49F4C330D10541F0A3
:100C4000F70183818D3021F08A3011F06E011AC0D6
:100C5000C5010E944C021CC04601F1E1CF16D1042F
:100C600018F080E1882E912CC818D90801E009F409
:100C700000E0282DA70161E07AE0C5010E945D0433
:100C8000E80CF91CC114D10439F7C5010E942603F0
:100C9000CE0112C0EC16FD0671F0D7016D917D01F9
:100CA000D501ED91FC910190F081E02DC5010995F0
:100CB000C80ED91EEFCFC601DF91CF910F91FF90E3
:100CC000EF90DF90CF90BF90AF909F908F9008955E
:100CD000AF92BF92CF92DF92EF92FF920F93CF939A
:100CE000DF9300D0CDB7DEB77C016983FC0184853A
:100CF00081110EC000E021E0AE014F5F5F4F61E067
:100D00007AE0C7010E945D04C7010E94260352C019
:100D10008981970120593F4F6901F9018D3011F008
:100D20008A3001F520812223E1F15701F0E6AF0E70
:100D3000B11C43E050E068E871E0C5012A830E94DD
:100D400099232A81892B21F4C7010E944C0207C0F4
:100D500000E0A50160E07AE0C7010E945D04F601B1
:100D600010821FC09081903191F401E020E1570181
:100D7000F0E6AF0EB11CA50160E07AE0C7010E9469
:100D80005D048981F501808381E0F60109C021E0DD
:100D9000290FF6012083F701E90FF11DE05AFF4FFB
:100DA0008083F7018585882329F069818FE093E0AE
:100DB0000E94B80E81E090E00F900F90DF91CF91EC
:100DC0000F91FF90EF90DF90CF90BF90AF9008957C
:100DD000EF92FF920F931F93CF93DF93CDB7DEB7C0
:100DE000C154D1090FB6F894DEBF0FBECDBF8C0140
:100DF000FC018585882331F066E171E08FE093E0A6
:100E00000E94BF0E7801FEE0EF0EF11CF801448154
:100E10005581BE016F5F7F4FC8010E94C816892BA4
:100E2000C9F06CE871E0CE0101960E94B623892BCF
:100E300079F06FE871E0CE0101960E94B623892B0C
:100E400049F0BE016F5F7F4FC7010E94BF23DECF15
:100E500081E001C080E0CF5BDF4F0FB6F894DEBFCA
:100E60000FBECDBFDF91CF911F910F91FF90EF90FB
:100E700008952F923F924F925F926F927F928F923E
:100E80009F92AF92BF92CF92DF92EF92FF920F9319
:100E90001F93CF93DF9300D000D0CDB7DEB79C83F4
:100EA0008B837A836983442E39017801C12CD12C3C
:100EB000512C242E312C21E0221A3108541409F42B
:100EC000CEC0511005C06DE38B819C810E94B80E8D
:100ED000D3010D911D913D01C80188278115B4E012
:100EE0009B0709F478C0A8F48115F2E09F0789F107
:100EF000811523E0920709F474C08115914009F02F
:100F00009EC0F701608171818B819C810E94E30EFC
:100F100096C08115B6E09B0709F47FC040F48115A7
:100F2000954009F08CC0D7016D917C9184C08115EA
:100F300027E0920709F47AC08115984009F07FC034
:100F4000F701408151816281738155276627772798
:100F50006BC0D7018D909C9011270150110908F4A6
:100F60006EC0BFEF8B1A9B0AF4013197B080AB8142
:100F7000BC81ED91FC910190F081E02D8B2D82954B
:100F80008F708A3010F067E301C060E3680F8B81D7
:100F90009C810995AB81BC81ED91FC910190F08120
:100FA000E02D2B2D2F702A3010F067E301C060E395
:100FB000620F8B819C8109950115110571F2AB813E
:100FC000BC81ED91FC9111970190F081E02D6DE2D3
:100FD000CD010995C2CFF7014081518162817381B2
:100FE00023C0D7018D909D90AD90BC90B7FE0DC0F1
:100FF0006DE28B819C810E94B80E44275527BA016F
:10100000481959096A097B090FC02AE0B501A401F2
:101010008B819C810E94F80E12C0F70140815181A2
:1010200062817381662777272AE0F2CFD7016C911E
:10103000062E000C770B8B819C810E942A17C2140C
:10104000D30429F06CE28B819C810E94B80E5394EA
:10105000BFEFCB1ADB0AE4E0EE0EF11C2FCF65E800
:1010600071E08B819C810E94E30E89819A81892B9A
:1010700061F1AB81BC811D968C91882331F06BE1CD
:1010800071E08FE093E00E94BF0E0B811C81025F34
:101090001F4FEB81FC8144815581B801CF010E9433
:1010A000C816892B41F040E050E060E070E0C801D4
:1010B0000E94F52303C060E070E0CB01A981BA81F2
:1010C0006D937D938D939C9313978B819C810F904F
:1010D0000F900F900F90DF91CF911F910F91FF9084
:1010E000EF90DF90CF90BF90AF909F908F907F90C8
:1010F0006F905F904F903F902F900C94E8066F9206
:101100007F928F929F92BF92CF92DF92EF92FF9247
:101110000F931F93CF93DF93EC013B016A01B22E33
:1011200048018701FC84F11007C0E881F98104843B
:10113000F585E02D61E00995B301CE010E94BF0E57
:1011400094014B2DB601CE010E943907182FF110E2
:1011500008C0E881F9810484F585E02D60E0CE01C6
:101160000995812FDF91CF911F910F91FF90EF9003
:10117000DF90CF90BF909F908F907F906F90089559
:101180000895089565E971E08DE993E00E94E30E0A
:1011900065E871E08DE993E00E94E30E4091A103C0
:1011A0005091A2036BEA73E08DE993E00E94C816A8
:1011B0008BEA93E00E9406258C319C401CF06AEB80
:1011C00071E002C066EC71E08DE693E00E94880B4E
:1011D000109246021092450208954091ED015091FF
:1011E000EE012091EB013091EC0142175307B4F46A
:1011F0009091E8009570E1F39091E80092FD19C09C
:101200008093F1008091ED019091EE0101968F7332
:101210009927892B19F48EEF8093E8008091ED01D6
:101220009091EE0101969093EE018093ED0181E0A3
:10123000089580E00895DF92EF92FF920F931F933D
:10124000CF93DF93D82E8A017B01E40EF51EEB01CC
:10125000CE15DF0571F0D7FE03C0FE01849101C0F9
:1012600088810E94ED0821968111F2CF8FEF9FEFC8
:1012700001C0C801DF91CF911F910F91FF90EF90B6
:10128000DF900895CF92DF92EF92FF920F931F931A
:10129000CF93DF936C017A018B01C0E0D0E0CE15D3
:1012A000DF0589F0D8016D918D01D601ED91FC919A
:1012B0000190F081E02DC6010995892B11F47E0182
:1012C00002C02196ECCFC701DF91CF911F910F9102
:1012D000FF90EF90DF90CF90089580E090E0892B11
:1012E00049F080E090E0892B29F00E9400008111F4
:1012F0000C9400000895CF93DF931F92CDB7DEB713
:101300006983DC01ED91FC910280F381E02D41E0E5
:1013100050E0BE016F5F7F4F09950F90DF91CF9135
:10132000089583E08093E9008091F200882319F00A
:101330008AE38093E8000895FC018485958597FDF4
:101340000BC09FB7F89482E08093E9008091F2008F
:101350009FBF90E0019608959FB7F89482E0809334
:10136000E9008091F2009FBF90E008950F931F93D2
:10137000CF93DF93EC0188819981009729F02A812E
:101380003B812617370788F48B016F5F7F4F0E94E0
:10139000CA22009761F0998388831B830A832C817A
:1013A0003D81232B11F4FC01108281E001C080E01B
:1013B000DF91CF911F910F910895EF92FF920F93BC
:1013C0001F93CF93DF93FC01248135816115710553
:1013D00011F480E019C041155105A9F07B01EC0121
:1013E0008A01020F131FB8010E94B609882389F3EE
:1013F000288139818C819D81B701820F931F0E94C2
:10140000BF231D830C8381E0DF91CF911F910F914A
:10141000FF90EF900895CF93DF93EC01888199813D
:10142000009711F00E943222198218821D821C82BC
:101430001B821A82DF91CF9108950F931F93CF9350
:10144000DF931F92CDB7DEB782E0898342E450E09C
:1014500060E271E080E80E941B090E945E18DC01D6
:1014600012960D911C9113970115110569F0D80181
:10147000ED91FC910280F381E02DBE016F5F7F4F03
:10148000C801099597FF07C089810F90DF91CF911F
:101490001F910F910895F80100851185E5CF8F9276
:1014A0009F92AF92BF92CF92DF92EF92FF920F93F3
:1014B0001F93CF93DF935C016B018A0180910B0135
:1014C000882309F45DC08091A102882309F458C0E3
:1014D0008091430280FF05C08091E000826080938C
:1014E000E000E8018AEFF82E93E0E92E2FE3822E48
:1014F0003AE3932E209709F43DC08FB7F894E09219
:10150000E9009091E80095FF06C09091F200282D27
:10151000291B922F01C090E08FBF91110AC0FA944D
:10152000FF2071F161E070E080E090E00E948011A6
:10153000E1CF292F30E0C217D3070CF49C2F8FB7CF
:10154000F894E092E9002091E80025FF11C0292FCE
:1015500030E0C21BD30BF601915020F04191409333
:10156000F100FACFC20ED31E9091E80095FF12C091
:101570008FBFC0CF84E68093EF011016110644F0B0
:1015800081E090E0F5019383828380E090E005C0E4
:10159000C80103C09092E800EBCFDF91CF911F917B
:1015A0000F91FF90EF90DF90CF90BF90AF909F9002
:1015B0008F900895CF93DF931F92CDB7DEB7FC01D4
:1015C0008485958597FD05C02FEF3FEF35872487EC
:1015D0000BC0CE0101960E943518019719F489813C
:1015E00090E002C08FEF9FEF0F90DF91CF910895B1
:1015F0000F931F93CF93DF931F92CDB7DEB78C016C
:10160000FC018485958597FF0EC0CE0101960E944E
:101610003518019719F4298130E002C02FEF3FEF10
:10162000F80135872487F801848595850F90DF912F
:10163000CF911F910F910895FC0124813581232BB7
:1016400031F421E061157105A1F0FB0108C0FC0136
:10165000808191816115710531F421E0FC01808167
:10166000882339F005C00E94B62321E0892B09F0B8
:1016700020E0822F0895CF93DF93EC01611571056F
:1016800061F0FB0101900020E9F73197AF01461BA3
:10169000570B0E94DD09811103C0CE010E940B0A85
:1016A000CE01DF91CF910895CF93DF93EC01FB0141
:1016B00044815581608171810E94DD09811103C0DF
:1016C000CE010E940B0ACE01DF91CF910895EF92D7
:1016D000FF920F931F93CF93DF93EC017B018A015D
:1016E000BA010E94B609811104C0CE010E940B0A02
:1016F00007C01D830C83B701888199810E94BF2395
:10170000CE01DF91CF911F910F91FF90EF9008953F
:10171000CF93DF93EC016115710559F0FB01019046
:101720000020E9F73197AF01461B570B0E94670B6A
:1017300002C00E940B0ACE01DF91CF910895FC01F7
:10174000808191810C943222EF92FF920F931F932C
:10175000CF93DF93CDB7DEB7A1970FB6F894DEBF76
:101760000FBECDBF7C01CB01BA01F70111821082FF
:10177000138212821582148242E0420F8E010F5FA3
:101780001F4F0E94D523BC01C7010E94880BA19660
:101790000FB6F894DEBF0FBECDBFDF91CF911F9182
:1017A0000F91FF90EF9008950F931F93CF93DF93C6
:1017B000CDB7DEB762970FB6F894DEBF0FBECDBFD0
:1017C0008C01CB01F80111821082138212821582E2
:1017D000148250E0BE016F5F7F4F0E942D25BE0135
:1017E0006F5F7F4FC8010E94880B62960FB6F89416
:1017F000DEBF0FBECDBFDF91CF911F910F91089536
:101800001F920F920FB60F9211248F939F93809186
:10181000E1009091E100937F9093E10083FF0FC07E
:101820001092E90091E09093EB001092EC0092E3AB
:101830009093ED001092A10298E09093F00082FF47
:101840001CC093E09093E9009091F200992319F065
:101850009AE39093E8009091EF01992329F09091F9
:10186000EF0191509093EF019091A002992329F0FC
:101870009091A00291509093A00284FF10C080919B
:10188000E2008E7E81608093E2008091E1008F7E95
:101890008093E100809143028E7E806111C080FFC1
:1018A00011C08091E2008E7E80618093E200809181
:1018B000E1008E7E8093E100809143028E7E816004
:1018C000809343029F918F910F900FBE0F901F90B6
:1018D00018951F920F920FB60F921124CF92DF929C
:1018E000EF92FF920F931F932F933F934F935F932A
:1018F0006F937F938F939F93AF93BF93EF93FF93D8
:10190000CF93DF93CDB7DEB76C97DEBFCDBF10921C
:10191000E9008091E80083FF0CC2FE017596DE2E7F
:10192000CF2E88E08E0F8E1729F09091F1009083D2
:101930003196F9CF84E68093A00282EF8093E8008D
:101940008D8987FF05C09091E80090FFFCCF03C010
:101950009EEF9093E800982F907609F0C5C09E897D
:101960002F89188D91110CC0803829F48091440280
:101970008093F10002C01092F1001092F1004EC16C
:10198000422F50E0512B913051F4811147C1413029
:10199000510509F043C1809144028D7F0BC0933003
:1019A00061F481113BC14130510509F037C180918B
:1019B000440282608093440231C1953041F48091A9
:1019C000E80080FFFCCF20682093E30027C1963019
:1019D00009F05EC0EB8CFC8C1092E9001092EE01D5
:1019E0001092ED01123091F51092EC011092EB0182
:1019F0000E941D0A99E0BE016F5F7F4FDB01E92F56
:101A00001D92EA95E9F799831A8391E09E8390EA03
:101A100098879AEF99872091ED013091EE01275F29
:101A20003F4F3C832B838D831092E9001092EE018F
:101A30001092ED01F092EC01E092EB0149E050E0F0
:101A400080E00E941B090E941D0AE8C0F092EC0190
:101A5000E092EB010E945E18DC011296ED90FC9082
:101A60001397E114F10409F4C7C0D701ED91FC917B
:101A70000480F581E02D6D2D7C2DC701099500971F
:101A800019F00CF0CBC0CEC0F701E084F184E9CFAF
:101A9000973009F4C7C0983021F481E08093F100B9
:101AA000BDC0993009F0BAC0837009F0BBC0EFE146
:101AB000F1E081E021E036E39081992361F08093A9
:101AC000E9002093EB0091919093EC003093ED00AE
:101AD0008F5F873089F78EE78093EA001092EA00E3
:101AE0008F898093A1029AC08B8D9C8D1092E90002
:101AF0001092EE011092ED019093EC018093EB01B6
:101B0000898D81115FC08E899D89913A59F4813206
:101B100009F088C047E050E064E071E080E00E9496
:101B20001B097CC0913209F07DC0833289F4888D15
:101B300090E0982F88272F89822BA0E0B0E0809337
:101B4000000190930101A0930201B093030166C0CC
:101B50008032B1F48091E80082FFFCCFE4E0F1E054
:101B600087E08E0F8E1729F09091F10090833196C7
:101B7000F9CF84E68093A0028BEF8093E80006C043
:101B8000823209F04BC08F8980930B018091420211
:101B9000882319F0EEEFFAE002C0E0E0F8E080916F
:101BA000040190910501A0910601B0910701803BCD
:101BB0009440A105B10509F0A0C080910B0180FF00
:101BC00083C09BC00E945E18DC0112960D911C918F
:101BD00013970115110531F1D801ED91FC91019098
:101BE000F081E02D6D2D7C2DC8010995811116C065
:101BF000F80100851185EDCF1130C1F0133091F45B
:101C00008F89882309F455C08230E9F440E86CE0FC
:101C10008FE691E00E947618882321F08EEF809362
:101C2000E80087C081E28093EB0083C08B8D9C8DA0
:101C3000089711F41093EA018091EA01811136C0EE
:101C40006CE771E038C0813029F440E868E086E64E
:101C500091E0E0CF833031F70E945E18DC011296EC
:101C6000ED90FC9013978E010F5F1F4F6801E114F8
:101C7000F10479F0D701ED91FC910680F781E02D18
:101C8000B801C7010995080F111DF701E084F1841F
:101C9000EECFD8011C92F60101900020E9F73197B0
:101CA000BF016C197D0940E0C601B4CF6EE871E058
:101CB00002C062E671E06115710509F4B3CFFB0162
:101CC000449150E080E82BCFEE3F2AE0F20731F05C
:101CD000808191819093FF0A8093FE0A87E797E7BE
:101CE000918380839BE088E10FB6F894A895809358
:101CF00060000FBE9093600091CF0FB6F894A89546
:101D000080916000886180936000109260000FBE37
:101D1000A895EE3F8AE0F80739F08091FE0A90918D
:101D2000FF0A918380837ACF1092FF0A1092FE0AF5
:101D300075CF6C960FB6F894DEBF0FBECDBFDF91A6
:101D4000CF91FF91EF91BF91AF919F918F917F9133
:101D50006F915F914F913F912F911F910F91FF9044
:101D6000EF90DF90CF900F900FBE0F901F901895BF
:101D7000DC01ED91FC910190F081E02D0994EF924E
:101D8000FF920F931F93CF93DF938C017B01C0E0F1
:101D9000D0E0F701EC0FFD1F6491662361F0D801DC
:101DA000ED91FC910190F081E02DC8010995892BFE
:101DB00011F02196EECFCE01DF91CF911F910F91BF
:101DC000FF90EF9008956115710579F0FB01019086
:101DD0000020E9F73197AF01461B570BDC01ED916D
:101DE000FC910280F381E02D099480E090E0089559
:101DF0004F925F926F927F92EF92FF920F931F9399
:101E0000CF93DF93CDB7DEB7A1970FB6F894DEBFBF
:101E10000FBECDBF7C01FA01CB0119A2223008F41C
:101E20002AE08E010F5D1F4F422E512C612C712C28
:101E3000BF01A30192010E941229F901CA010150B8
:101E400011096A3014F4605D01C0695CD8016C93BB
:101E5000232B242B252B61F7B801C7010E94E30E29
:101E6000A1960FB6F894DEBF0FBECDBFDF91CF9124
:101E70001F910F91FF90EF907F906F905F904F9028
:101E8000089590E0FC013197EF30F105B0F5EA5A82
:101E9000FF4F0C94531F809180008F7703C0809177
:101EA00080008F7D80938000089580918000877FDF
:101EB000F9CF84B58F7702C084B58F7D84BD089536
:101EC000809190008F7707C0809190008F7D03C034
:101ED00080919000877F8093900008958091C0004A
:101EE0008F7703C08091C0008F7D8093C0000895DC
:101EF0008091C200877F8093C20008953FB7F89415
:101F000080913E0290913F02A0914002B091410227
:101F100026B5A89B05C02F3F19F00196A11DB11D44
:101F20003FBFBA2FA92F982F8827820F911DA11D7F
:101F3000B11DBC01CD0143E0660F771F881F991FBB
:101F40004A95D1F7089585ED8093BC008091BC003F
:101F500084FDFCCF1092EA0208950895E091A30257
:101F60008091A202E81730F4F0E0EC55FD4F80813B
:101F700090E008958FEF9FEF08959091A3028091D4
:101F8000A202981750F4E92FF0E0EC55FD4F2081A4
:101F900030E09F5F9093A30202C02FEF3FEFC90193
:101FA00008958091A20290E02091A302821B9109E2
:101FB0000895CF92DF92EF92FF920F931F93CF93EA
:101FC000DF937C018A018091EB02882389F0EB0189
:101FD0006B01C40ED51ECC15DD05F1F06991D7015A
:101FE000ED91FC910190F081E02DC7010995F3CFAF
:101FF000842F413288F49091EA02943069F440933E
:102000001202FB0120EF31E0D9019A2F921B9817A1
:1020100018F491919D93F9CFC801DF91CF911F9151
:102020000F91FF90EF90DF90CF9008952091EB02F9
:102030002223C9F020910E03203240F021E030E04D
:10204000FC013383228380E090E008958091EC02CC
:10205000E82FF0E0E351FD4F60838F5F8093EC0247
:1020600080930E0309C08091EA02843029F481E054
:10207000809312026093F00181E090E00895FC01EA
:10208000658B08950F931F93CF93DF938C01EB0122
:1020900088E2FB0111928A95E9F74BE050E06FE985
:1020A00071E0CE010E94C6231B8681E090E0A0E093
:1020B000B0E08C879D87AE87BF87F80181899289C0
:1020C000A389B489888B998BAA8BBB8B82E090E023
:1020D000A0E0B0E08C8B9D8BAE8BBF8B1CA21DA2B1
:1020E0001EA21FA2188E198E1A8E1B8E1C8E1D8E7C
:1020F0001E8E1F8E18A219A21AA21BA2DF91CF91C9
:102100001F910F9108950F931F93CF93DF938C012D
:10211000EB0188E2FB0111928A95E9F74BE050E070
:102120006FE971E0CE010E94C6231B8641E050E0BA
:1021300060E070E04C875D876E877F87F801878558
:102140009089A189B289888B998BAA8BBB8B4C8B88
:102150005D8B6E8B7F8B1CA21DA21EA21FA2188EF0
:10216000198E1A8E1B8E1C8E1D8E1E8E1F8E18A20F
:1021700019A21AA21BA2DF91CF911F910F9108956E
:10218000CF93DF93282F30E0F901E853FE4F84917D
:10219000F901EB50FE4FD491F901EC5EFD4FC49173
:1021A000CC2391F081110E94410FEC2FF0E0EE0F53
:1021B000FF1FE654FE4FA591B491EC91ED2381E011
:1021C00090E021F480E002C080E090E0DF91CF91C8
:1021D00008951F93CF93DF93282F30E0F901E85340
:1021E000FE4F8491F901EB50FE4FD491F901EC5E62
:1021F000FD4FC491CC23C9F0162F81110E94410FCD
:10220000EC2FF0E0EE0FFF1FE455FE4FA591B491C7
:102210008FB7F894111105C09C91ED2FE095E9233B
:1022200002C0EC91ED2BEC938FBFDF91CF911F910A
:102230000895CF93DF9390E0FC01EB50FE4F249183
:10224000FC01EC5EFD4F8491882361F190E0880FE2
:10225000991FFC01E951FE4FC591D491FC01E45551
:10226000FE4FA591B491611109C09FB7F894888180
:10227000209582238883EC912E230BC0623061F479
:102280009FB7F8943881822F809583238883EC91BF
:102290002E2B2C939FBF06C08FB7F894E8812E2B6E
:1022A00028838FBFDF91CF910895823108F082514A
:1022B000E82FF0E0E056FE4FE49180917B00E3FBD5
:1022C000222720F930E095E0220F331F9A95E1F79D
:1022D0008F7D282B20937B00E770E064E0937C00E7
:1022E00080917A00806480937A0080917A0086FDE4
:1022F000FCCF809178002091790090E0922B089596
:102300008F929F92AF92BF92CF92DF92EF92FF9205
:102310006B017C010E947E0F4B015C01C114D10452
:10232000E104F104F1F00E947E0FDC01CB01881979
:102330009909AA09BB09883E9340A105B10570F32C
:1023400021E0C21AD108E108F10888EE880E83E086
:10235000981EA11CB11CC114D104E104F10419F7A9
:10236000DDCFFF90EF90DF90CF90BF90AF909F9028
:102370008F9008952FB7F89460913A0270913B02C4
:1023800080913C0290913D022FBF08954F925F9241
:102390006F927F928F929F92AF92BF92CF92DF9275
:1023A000EF92FF920F931F93CF93DF937C01EB018A
:1023B00084E2FB0111928A95E9F781E08093EB02B8
:1023C00089E180930D031092EC0210920E0368EAEB
:1023D0008FE593E00E9416100E94751766E089E170
:1023E0000E94CE178091A20290E02091A302821B4E
:1023F000910986309105ECF38FE593E00E94BD0FC3
:10240000582E8FE593E00E94BD0F482E8FE593E094
:102410000E94BD0F782E8FE593E00E94BD0F682EBD
:102420008FE593E00E94BD0F982E8FE593E00E9408
:10243000BD0F882EB42CA12CB501652984E07595BB
:1024400067958A95E1F7072E000C880B990B0E947F
:10245000E527F7016383748385839683D62CC12C8B
:10246000B601672994E0759567959A95E1F7072E6F
:10247000000C880B990B0E94E527F7016783708792
:1024800081879287182D00E0B801692924E07595AD
:1024900067952A95E1F7072E000C880B990B0E948F
:1024A000E527F701638774878587968784E290E044
:1024B000A0E0B0E088839983AA83BB838785908955
:1024C000A189B2898C839D83AE83BF8381E090E034
:1024D000A0E0B0E088879987AA87BB870E94BA11DD
:1024E000688B798B8A8B9B8B2FE632E143E85AE32A
:1024F000F70163817481858196810E9444282AE0D6
:1025000038EE4CE151E40E9444286C8B7D8B8E8B1D
:102510009F8B2FE632E143E85AE3F701678170852C
:10252000818592850E9444282AE038EE4CE151E4EE
:102530000E944428688F798F8A8F9B8F2FE632E123
:1025400043E85AE3F70163857485858596850E9483
:1025500044282AE038EE4CE151E40E9444286C8F74
:102560007D8F8E8F9F8F81E0DF91CF911F910F9193
:10257000FF90EF90DF90CF90BF90AF909F908F90A3
:102580007F906F905F904F9008951F920F920FB6BB
:102590000F9211242F933F938F939F93AF93BF93E9
:1025A00080913A0290913B02A0913C02B0913D0291
:1025B0003091390226E0230F2D3720F40296A11D19
:1025C000B11D05C029E8230F0396A11DB11D20935D
:1025D000390280933A0290933B02A0933C02B0935D
:1025E0003D0280913E0290913F02A0914002B09145
:1025F00041020196A11DB11D80933E0290933F02BE
:10260000A0934002B0934102BF91AF919F918F91EF
:102610003F912F910F900FBE0F901F9018951F9212
:102620000F920FB60F9211240F900FBE0F901F90B4
:1026300018951F920F920FB60F9211242F933F936C
:102640004F935F936F937F938F939F93AF93BF93BA
:10265000EF93FF938091B900887F803609F49CC086
:1026600068F5883209F45BC090F4803109F454C0F5
:1026700038F4882309F4F3C0883009F44DC0F3C05E
:10268000883109F44CC0803209F45DC0ECC080345C
:1026900009F468C048F4803309F455C0883309F060
:1026A000E2C08093E802D5C0803509F44FC0883578
:1026B00009F45DC0883409F0D6C0D3C0883909F464
:1026C000C4C0A8F4883709F467C038F4883609F420
:1026D00063C0803709F460C0C6C0883809F4B5C04B
:1026E000803909F45FC0803809F0BDC05BC0803B11
:1026F00009F483C038F4803A09F466C0883A09F4D2
:102700007CC0B1C0803C09F4A4C0883C09F4A1C0DD
:10271000883B09F487C0A7C08091C50210C0909182
:10272000E7028091E602981770F5E091E70281E0F8
:102730008E0F8093E702F0E0EA53FD4F8081809393
:10274000BB0085EC83C08093E8028BC0E091E70278
:1027500081E08E0F8093E7028091BB00F0E0EA53A6
:10276000FD4F80839091E7028091E6026BC0E0917B
:10277000E70281E08E0F8093E7028091BB00F0E0DA
:10278000EA53FD4F80838091E90281116AC081E0A4
:102790008093C40284EA5EC083E08093EA021092D0
:1027A0003602CFCF80913602803208F04EC0E091E1
:1027B000360281E08E0F809336028091BB00F0E0FC
:1027C000EA5EFD4F8083BDCF80913602803230F4C7
:1027D000E0913602F0E0EA5EFD4F10820E94A30F06
:1027E0006091360270E0E0911402F091150286E1EA
:1027F00092E00995109236022CC084E08093EA02A0
:102800001092130210921202E0911002F091110244
:10281000099580911202811105C081E08093120216
:102820001092F001E091130281E08E0F8093130269
:10283000F0E0E051FE4F80818093BB009091130245
:1028400080911202981708F47CCF85E88093BC0031
:102850000AC085EC8093BC001092EA0204C010927A
:10286000E8020E94A30FFF91EF91BF91AF919F915A
:102870008F917F916F915F914F913F912F910F9029
:102880000FBE0F901F9018951092EA0281E080937E
:10289000E9021092C40261E082E00E94E91061E066
:1028A00083E00E94E910E9EBF0E080818E7F808375
:1028B00080818D7F808380E28093B80085E480935F
:1028C000BC0008950F931F93CF93DF938C01EB010E
:1028D00081E08093EB028EE180930D031092EC0275
:1028E00010920E0361E08FE593E00E9416106C2FAA
:1028F0008FE593E00E9416100E947517F801D483AB
:10290000C383C038D10509F45BC0DCF4C034D10501
:10291000A9F1C036D10509F442C0A09709F08AC0D8
:1029200080E090E8A9E8B4E480931001909311014D
:10293000A0931201B093130180E090E0A5E7B4E406
:1029400071C0C03CD10509F44CC0C03ED10509F4AA
:1029500059C0C03AD10509F06DC080E090E0A8EC04
:10296000B3E48093100190931101A0931201B093EE
:10297000130180E090E8A1EBB3E454C080E090EC58
:10298000A5E5B4E48093100190931101A093120186
:10299000B093130180E090E0AEE3B4E443C080E084
:1029A00090E8A7E2B4E48093100190931101A09302
:1029B0001201B093130180E090E0A6E1B4E432C0CC
:1029C00080E090E0A1EEB3E48093100190931101B8
:1029D000A0931201B093130180E090E0A8ECB3E45F
:1029E00021C080E090E0A5EAB3E4809310019093C9
:1029F0001101A0931201B093130180E090E8A3E9C4
:102A0000B3E410C080E090E0A6E6B3E48093100148
:102A100090931101A0931201B093130180E090E014
:102A2000ADE4B3E480930C0190930D01A0930E01EB
:102A3000B0930F01DF91CF911F910F9108952F92C5
:102A40003F924F925F926F927F928F929F92AF923E
:102A5000BF92CF92DF92EF92FF920F931F93CF938B
:102A6000DF93CDB7DEB728970FB6F894DEBF0FBE61
:102A7000CDBF98878F838B0184E2FB0111928A95E9
:102A8000E9F789E00E94151880FF66C1F1E0F09334
:102A9000EB028EE180930D031092EC0210920E0374
:102AA00063E08FE593E00E9416100E94751766E0C0
:102AB0008EE10E94CE178091A20290E02091A302A5
:102AC000821B910986309105ECF38FE593E00E941B
:102AD000BD0FA82E8FE593E00E94BD0FB82E8FE5A5
:102AE00093E00E94BD0FE82E8FE593E00E94BD0F9A
:102AF000F82E8FE593E00E94BD0FC82E8FE593E07E
:102B00000E94BD0FD82EAA82198269817A816B2911
:102B1000072E000C880B990B0E94E5272B013C0126
:102B2000EF81F8856583768387839087CC821B82CB
:102B30006B817C816D29072E000C880B990B0E94FC
:102B4000E5274B015C01EF81F885618772878387F8
:102B50009487EE821D826D817E816F29072E000C85
:102B6000880B990B0E94E5276B017C01EF81F885AA
:102B7000658776878787908B8589882309F47AC053
:102B80002224239420E030E04FEF54ECC301B20143
:102B90000E94DE2718160CF4212C3324339420E0F5
:102BA00030E04FEF54E4C301B2010E94152187FDCC
:102BB000312C32287724739420E030E04FEF54E436
:102BC000C501B4010E94152187FD712C3728772497
:102BD000739420E030E04FEF54ECC501B4010E9443
:102BE000DE2718160CF4712C7328BB24B39420E054
:102BF00030E04FEF54E4C701B6010E94152187FD74
:102C0000B12CB72851F420E030E04FEF54ECC7016D
:102C1000B6010E94DE2718166CF1EF81F8858381DA
:102C2000948180369105E1F04CF480329105D9F021
:102C300080349105F9F460E670E017C0803A9105A0
:102C400061F0803C910531F08038910599F460EA9B
:102C500070E00BC060EE70E008C060EC70E005C092
:102C600060E870E002C060E470E08F8198850E94A7
:102C7000621407CF84E290E0A0E0B0E0F801808326
:102C80009183A283B383EF81F88581899289A38997
:102C9000B489F80184839583A683B78382E090E0AA
:102CA000A0E0B0E080879187A287B3870E94BA1125
:102CB000F801608B718B828B938BC0901001D09048
:102CC0001101E0901201F0901301A7019601EF812C
:102CD000F88565817681878190850E943D2020E07E
:102CE00030E048EC52E40E944428F801648B758B74
:102CF000868B978BA7019601EF81F8856185728598
:102D0000838594850E943D2020E030E048EC52E429
:102D10000E944428F801608F718F828F938F2091D9
:102D20000C0130910D0140910E0150910F01EF8186
:102D3000F88565857685878590890E943D2020E00D
:102D400030E048EC52E40E944428F801648F758F0B
:102D5000868F978F81E001C080E028960FB6F894A7
:102D6000DEBF0FBECDBFDF91CF911F910F91FF90BE
:102D7000EF90DF90CF90BF90AF909F908F907F901B
:102D80006F905F904F903F902F9008950E949423F2
:102D9000CF92DF92EF92FF920F931F93CF93DF9327
:102DA0007C016B018A01C0E0D0E00115110561F1E1
:102DB000D701ED91FC910480F581E02DC7010995C3
:102DC000892BC1F0D701ED91FC910680F781E02DB0
:102DD000C70109958D3061F38A3019F4209741F3CA
:102DE0002CC0F601EC0FFD1F80832196C034D10565
:102DF000F8F223C001501109C1F261E070E080E0F7
:102E000090E00E948011D1CFF601EC0FFD1F1082DF
:102E1000F70185858823A1F0209791F0B6018FE016
:102E200093E00E94E30EC034D10550F465E871E0F0
:102E30008FE093E00E94E30E03C000E010E0B5CF06
:102E4000CE01DF91CF911F910F91FF90EF90DF9016
:102E5000CF900895CF92DF92EF92FF920F931F933E
:102E6000CF93DF936B01770FEE08FF08F7FE1BC0CF
:102E7000EC016DE20E94B80E8C0144275527BA017F
:102E80004C195D096E097F092AE0CE010E94F80EF7
:102E9000800F911FDF91CF911F910F91FF90EF90C5
:102EA000DF90CF9008952AE0B701A601DF91CF917E
:102EB0001F910F91FF90EF90DF90CF900C94F80E40
:102EC000EF92FF920F931F93E12CF12C00E010E0A2
:102ED00020E040E050E0BC018DE993E00E947F08D3
:102EE0001F910F91FF90EF90089520910E03909104
:102EF0000D03213208F046C08091EA028111FCCF17
:102F000032E03093EA0231E03093E9023FEF309350
:102F1000E8021092E7022093E602ADEEB2E046EC42
:102F200052E0FA013E2F341B321718F43D913193D1
:102F3000F9CF1092C5022091C502990F922B909360
:102F4000C5029091C402913041F41092C402909154
:102F5000C5029093BB0095EC01C095EE9093BC0028
:102F60009091EA029230E1F39091E8029F3F79F06C
:102F70008091E802803241F08091E802803331F0A4
:102F800084E005C081E003C082E001C083E01092CC
:102F9000EC0210920E031092EB0208959091EA0257
:102FA0009111FCCF613208F060E291E09093EA0267
:102FB0009093E9022FEF2093E8021092E702260F88
:102FC0002093E6029093C5029091C502880F892B49
:102FD0008093C5028091C402813041F41092C402F2
:102FE0008091C5028093BB0085EC01C085EE809383
:102FF000BC008091EA028130E1F38091E7028617FC
:1030000010F46091E702A6ECB2E024EA32E0F901A4
:103010008E2F821B861718F48D918193F9CF109211
:10302000A3026093A202862F0895CF9391E090931C
:10303000EB029EE190930D031092EC0210920E03AE
:10304000682F8FE593E00E9416100E94751761E0CB
:103050008EE10E94CE178FE593E00E94BD0FC82F2E
:103060000E9475178C2FCF910895FC018091A102C9
:10307000811103C08FEF9FEF08959FB7F89482E00E
:103080008093E9002091F20030E01216130614F448
:1030900021E030E02115310551F084E68093A00253
:1030A0008091F10080838091F200882319F09FBF06
:1030B000C90108958BE68093E800F9CF80915E0402
:1030C00081110DC082E080935A0484E080935B04F8
:1030D00010925D0410925C0481E080935E048AE5A6
:1030E00094E008958DE693E00C949F0BCF92DF92CD
:1030F000EF92FF920F931F93CF93DF931F92CDB761
:10310000DEB7182F062FE42E862F880F8E5F998347
:103110000E94ED0883E00E94ED08F12EC12E9981F6
:10312000D92E8C2D8F19801798F4F601E7FE02C076
:10313000849101C080810E94ED08182F80E00E94D8
:10314000ED088123FFEFCF1ADF0A8111EACF01C01A
:1031500081E00F90DF91CF911F910F91FF90EF9041
:10316000DF90CF900895CF93DF93CDB7DEB7E89788
:103170000FB6F894DEBF0FBECDBF789484B58260E1
:1031800084BD84B5816084BD85B5826085BD85B50B
:10319000816085BD80916E00816080936E00109289
:1031A0008100809181008260809381008091810004
:1031B0008160809381008091800081608093800095
:1031C0008091910082608093910080919100816054
:1031D0008093910080919000816080939000809115
:1031E000C10084608093C1008091C100826080939F
:1031F000C1008091C10081608093C1008091C300B3
:1032000081608093C3008091C00082608093C00081
:103210008091C20081608093C20080917A008460B6
:1032200080937A0080917A00826080937A00809106
:103230007A008E7F80937A0080917A0080688093F4
:103240007A001092A10210924402109243028091DF
:10325000D70081608093D70080EA8093D80089B539
:103260008F7E89BD89B5826089BD09B400FEFDCF1E
:1032700061E070E080E090E00E9480118091D800D1
:103280008F7C80618093D8008091E000807F809364
:10329000E0008091E1008E7E8093E1008DE08093DC
:1032A000E200EEEFFFE7859194918B3F9C4D19F47E
:1032B00081E0809342021092AA0360E08091F803BB
:1032C0000E94191161E08091F7030E94191161E0D9
:1032D0008091F7030E94E9108091FA038F3F09F073
:1032E00034C01FB7F89480914702811127C0E5E2EE
:1032F000F2E08491E6E0F2E09491E82FF0E0EE0F46
:10330000FF1FE951FE4FA591B491EC91E92321F4FF
:1033100061E081E10E94E91061E081E10E94191100
:103320008CB580618CBD8CB580648CBD61E08FE014
:103330000E94191161E080E10E94191180914702F9
:103340008F5F809347021FBF12C061E00E94191176
:1033500060E08091FA030E94E91060E08091FC0334
:103360000E94191161E08091FB030E94191100E095
:1033700020E040E050E06FEE7EEB8DE993E00E94AC
:103380005D048091F90387FD18C061E00E94191166
:1033900061E08091F9030E94E91060E08091F903F7
:1033A0000E94E9106AE070E080E090E00E948011E5
:1033B00061E08091F9030E94E91068EE73E080E01B
:1033C00090E00E94801163E372E08DE993E00E9437
:1033D000BF0E65E871E08DE993E00E94E30E8DE990
:1033E00093E00E94E80668EE73E080E090E00E94BF
:1033F0008011E0919D03F0919E030284F385E02DFE
:103400008DE993E0099580E093E098878F83198296
:103410001A821B821C82CE0101967C018E01095FFB
:103420001F4F21E040E050E063E472E08DE993E05B
:103430000E947F081092AA03F090A903F1100BC01C
:10344000E0919D03F0919E030484F585E02D61E0F9
:103450008DE993E0099566EA71E08DE993E00E94B9
:10346000E30E00E010E020E030E040E060E070E0DB
:103470008DE993E00E943907F1100BC0E0919D03A4
:10348000F0919E030484F585E02D60E08DE993E0E2
:10349000099585E892E00E94601788E692E00E9414
:1034A000601785E592E00E94601719821A821B82DC
:1034B0001C82E12CF12C00E010E020E0AE014F5F17
:1034C0005F4F67E472E08DE993E00E947F08898195
:1034D0009A81AB81BC81892B8A2B8B2B39F464E6D2
:1034E00070E080E090E00E948011DFCF1092A30294
:1034F0001092A2021092EC0210920E030E94441449
:1035000011E01093EB0209E100930D031092EC021D
:1035100010920E0360E28FE593E00E94161067E5BB
:103520008FE593E00E9416100E9475171093EB022E
:1035300000930D031092EC0210920E0360E28FE5EF
:1035400093E00E9416100E94751761E089E10E94C5
:10355000CE178FE593E00E94BD0F0E947517109261
:10356000A3021092A2021092EC0210920E030E948B
:1035700044141093EB028EE180930D031092EC0241
:1035800010920E0362E08FE593E00E94161060E057
:103590008FE593E00E9416100E94751780E00E944C
:1035A0001518803131F460E270E083E793E00E9407
:1035B000621462E08AE00E94191162E08BE00E94CE
:1035C000191162E08CE00E94191160E083E10E9411
:1035D000191160E082E10E9419110E94C2088E0157
:1035E000075E1F4F6CE772E089E893E00E94C61106
:1035F0008090980290909902A0909A02B0909B02BD
:1036000020E030E0A901C501B4010E94152187FF27
:1036100005C080E090E0A0E8BFEB04C080E090E04F
:10362000A0E8BFE38DA39EA3AFA3B8A7C09090026C
:10363000D0909102E0909202F0909302A501940143
:10364000C501B4010E9444282B013C01A701960149
:10365000C701B6010E944428A30192010E945A1F8B
:103660000E9430219B01AC018090940290909502C1
:10367000A0909602B0909702C501B4010E94D91F94
:1036800020E030E044E353E40E9444282BED3FE087
:1036900049E450E40E943D2060936C0270936D02F7
:1036A00080936E0290936F02A5019401C501B4014D
:1036B0000E944428A30192010E945A1F0E943021B7
:1036C0009B01AC016DA17EA18FA198A50E94442809
:1036D0009B01AC01C701B6010E94D91F20E030E078
:1036E00044E353E40E9444282BED3FE049E450E4D6
:1036F0000E943D2060937002709371028093720269
:103700009093730268E472E083E793E00E941F15D0
:1037100080915C0290915D02A0915E02B0915F0287
:103720008DA39EA3AFA3B8A7809160029091610280
:10373000A0916202B09163028DA79EA7AFA7B8AB1C
:103740002DA13EA14FA158A5BC01CD010E94D91FBA
:1037500020E030E044E353E40E9444282BED3FE0B6
:1037600049E450E40E943D206B017C0120E030E000
:10377000A9010E94DE2787FF11C020E030E044EB62
:1037800053E4C701B6010E945A1F609374027093FC
:103790007502809376029093770208C0C0927402FB
:1037A000D0927502E0927602F0927702C090900279
:1037B000D0909102E0909202F09093028090940257
:1037C00090909502A0909602B09097026091980216
:1037D0007091990280919A0290919B029B01AC0199
:1037E0000E94442869A77AA78BA79CA7A7019601E6
:1037F000C701B6010E94442829A53AA54BA55CA59E
:103800000E945A1F0E9430219B01AC01C501B401E6
:103810000E94D91F2B013C01A5019401C501B401EF
:103820000E94442829A53AA54BA55CA50E945A1FD1
:103830000E9430219B01AC01C701B6010E94D91F33
:103840006B017C01C301B2010E94382069AB7AABE5
:103850008BAB9CABC301B2010E9422212B013C0126
:10386000F7FAF094F7F8F094C701B6010E943820F7
:103870004B015C01C701B6010E9422216B017C0152
:103880008091640290916502A0916602B0916702F6
:1038900089A79AA7ABA7BCA7A50194016DA17EA19A
:1038A0008FA198A50E9444286DAB7EAB8FAB98AFDB
:1038B000A701960169A57AA58BA59CA50E9444281D
:1038C0009B01AC016DA97EA98FA998AD0E945A1FDA
:1038D00060935C0270935D0280935E0290935F023E
:1038E000A30192016DA17EA18FA198A50E944428F9
:1038F000A70196010E9444286B017C0129A93AA9DD
:103900004BA95CA96DA57EA58FA598A90E94442806
:103910009B01AC01C701B6010E945A1F6B017C01DB
:10392000A301920169A57AA58BA59CA50E944428B4
:10393000A50194010E9444289B01AC01C701B60176
:103940000E94591F6093600270936102809362022B
:10395000909363028CE00E94C01061E070E0892BBC
:1039600011F060E070E04AE0CE0101960E94D40BB5
:103970008BE00E94C01061E070E0892B11F060E0E4
:1039800070E04AE0CE0107960E94D40B8AE00E94C4
:10399000C01061E070E0892B11F060E070E04AE057
:1039A000CE0143960E94D40B1E861D86188A1F8660
:1039B0001A8A198A6B897C896115710531F04F89E2
:1039C000588DCE010D960E94670BBE01695F7F4F37
:1039D000CE010D960E94540BBE016F5F7F4F0E9477
:1039E000540B1A8E198E1C8E1B8E1E8E1D8E8017E8
:1039F000910771F0DC016D917C9111976115710552
:103A000039F014964D915C911597C8010E94670B8F
:103A1000CE010D960E949F0BCE0143960E949F0BF4
:103A2000CE0107960E949F0BCE0101960E949F0B2C
:103A300068EB71E0C8010E941C0B811135C06CEB72
:103A400071E0C8010E941C0B811131C060EC71E073
:103A5000C8010E941C0B81112EC064EC71E0C801EA
:103A60000E941C0B81112BC068EC71E0C8010E9400
:103A70001C0B811128C06CEC71E0C8010E941C0B6A
:103A8000811125C060ED71E0C8010E941C0B8111FD
:103A900022C064ED71E0C8010E941C0B8823F1F084
:103AA00047E0242E312C1AC0212C312C17C022249F
:103AB0002394312C13C0F2E02F2E312C0FC0E3E001
:103AC0002E2E312C0BC074E0272E312C07C065E060
:103AD000262E312C03C056E0252E312CC8010E9421
:103AE0009F0B4AE0B101CE014F960E94D40B83E1B7
:103AF0000E94551197FD07967C0133E0F594E794F9
:103B00003A95E1F782E10E94551197FD079623E06F
:103B1000959587952A95E1F79C012B5031092D3118
:103B2000310580F49701295231092732310588F196
:103B3000225E3F4F2D31310578F1265431092D3168
:103B4000310568F19C01215531092D31310580F491
:103B50009701295231092732310520F1225E3F4F6A
:103B60002D31310510F1265431092D31310500F187
:103B70008997879718F5C7010B974D97E0F0B1E546
:103B8000EB1AF108EDE1EE16F104C0F463E070E029
:103B900017C061E070E014C068E070E011C062E03E
:103BA00070E00EC065E070E00BC066E070E008C039
:103BB00064E070E005C067E070E002C060E070E0C3
:103BC0004AE0C8010E94D40B4091740250917502E2
:103BD000609176027091770222E0CE0143960E94B6
:103BE000A40B409170025091710260917202709129
:103BF0007302705822E0CE010D960E94A40B4091F2
:103C00006C0250916D0260916E0270916F0222E021
:103C1000CE0107960E94A40B1A8219821C821B8275
:103C20001E821D824DE050E068ED71E0CE010196EC
:103C30000E94670BBE01695F7F4FCE0101960E9413
:103C4000540B66EE71E00E943B0BBE01635F7F4F39
:103C50000E94540B66EE71E00E943B0BBE016D5E4C
:103C60007F4F0E94540B66EE71E00E943B0BB8013F
:103C70000E94540B66EE71E00E943B0BBE01615E38
:103C80007F4F0E94540B66EE71E00E943B0B6DE685
:103C900073E00E94540B68EE71E00E943B0BE091D0
:103CA0009D03F0919E03DC0114964D915C91159754
:103CB0006D917C910280F381E02D8DE993E009956F
:103CC00065E871E08DE993E00E94E30ECE01019674
:103CD0000E949F0BCE0107960E949F0BCE010D966E
:103CE0000E949F0BCE0143960E949F0BC8010E9429
:103CF0009F0BCE014F960E949F0B809145029091A1
:103D00004602813EBEE29B071CF00E94C20805C02D
:103D10000196909346028093450265E070E080E052
:103D200090E00E9480110E946D095CCCEFE0F3E00E
:103D30001382128288EE93E0A0E0B0E08483958342
:103D4000A683B78329E231E0318320832FEF3FEF51
:103D500035872487EFE5F3E013821282848395830D
:103D6000A683B78389E391E091838083EBE6F3E058
:103D700080E5808381E08183EDE9F3E013821282A4
:103D8000848715864AEF50E060E070E044835583F5
:103D9000668377831092EE031092ED031092F00386
:103DA0001092EF031092F2031092F1031092F403B9
:103DB0001092F3031092F6031092F50323E731E01B
:103DC000318320832EE034E030934F0420934E045F
:103DD00020E430E030935104209350048093520447
:103DE000809353041092590410925804109257046F
:103DF00010925604109255041092540483E080935C
:103E0000EC0388E08093F70387E08093F80384E075
:103E10008093F9038FEF8093FA038093FB038093E1
:103E2000FC0310920D04E9E8F3E087E591E091834B
:103E300080838DE596E7A0E0B0E08787908BA18B2B
:103E4000B28BE3E7F3E089E491E0918380838EE530
:103E500096E7A0E0B0E0818B928BA38BB48B158AA0
:103E6000EDE6F3E011821082138212821582148231
:103E700041E050E06AEB71E0CF010C94670BAA1BA4
:103E8000BB1B51E107C0AA1FBB1FA617B70710F045
:103E9000A61BB70B881F991F5A95A9F78095909577
:103EA000BC01CD010895EE0FFF1F0590F491E02DA8
:103EB00009945058BB27AA270E94711F0C94C82848
:103EC0000E94BA2838F00E94C12820F039F49F3FA0
:103ED00019F426F40C94B7280EF4E095E7FB0C9443
:103EE000B128E92F0E94D92858F3BA17620773073F
:103EF0008407950720F079F4A6F50C94FB280EF4BE
:103F0000E0950B2EBA2FA02D0B01B90190010C01E9
:103F1000CA01A0011124FF27591B99F0593F50F401
:103F2000503E68F11A16F040A22F232F342F442759
:103F3000585FF3CF469537952795A795F040539551
:103F4000C9F77EF41F16BA0B620B730B840BBAF021
:103F50009150A1F0FF0FBB1F661F771F881FC2F78C
:103F60000EC0BA0F621F731F841F48F487957795A0
:103F70006795B795F7959E3F08F0B0CF9395880F5A
:103F800008F09927EE0F9795879508950E94BA2813
:103F900060F080E891E009F49EEF0E94C12828F0CB
:103FA00040E851E071F45EEF0CC00C94B7280C941B
:103FB000FB28E92FE0780E94D92840F3092E052A32
:103FC000B1F3261737074807590738F00E2E07F8C0
:103FD000E02569F0E025E0640AC0EF6307F800948B
:103FE00007FADB01B9019D01DC01CA01AD01EF93C4
:103FF0000E9454200E94C8280E9409205F915523E6
:1040000039F02BED3FE049E450FD49EC0C945A1F88
:104010000895DF93DD27B92FBF7740E85FE31616D9
:10402000170648075B0718F4D92F0E941A219F939F
:104030008F937F936F930E947021EAECF0E00E94CF
:10404000AF200E94C8282F913F914F915F910E940D
:104050005728DD2351F09058A2EA2AED3FE049ECC1
:104060005FE3D0785D270E94711FDF910C94C82810
:104070000E94D820E3950C9401210E9451200C94B9
:10408000C8280E94C12858F00E94BA2840F029F49C
:104090005F3F29F00C94B12851110C94FC280C942A
:1040A000B7280E94D92868F39923B1F3552391F3D7
:1040B000951B550BBB27AA2762177307840738F097
:1040C0009F5F5F4F220F331F441FAA1FA9F335D0F4
:1040D0000E2E3AF0E0E832D091505040E695001CA8
:1040E000CAF72BD0FE2F29D0660F771F881FBB1F62
:1040F000261737074807AB07B0E809F0BB0B802D40
:10410000BF01FF2793585F4F3AF09E3F510578F06B
:104110000C94B1280C94FC285F3FE4F3983ED4F350
:10412000869577956795B795F7959F5FC9F7880F3F
:10413000911D9695879597F90895E1E0660F771F91
:10414000881FBB1F621773078407BA0720F0621B22
:10415000730B840BBA0BEE1F88F7E0950895DF937D
:10416000CF931F930F93FF92EF92DF927B018C010D
:10417000689406C0DA2EEF010E945728FE01E894E9
:10418000A5912591359145915591A6F3EF010E9496
:10419000711FFE019701A801DA9469F7DF90EF9093
:1041A000FF900F911F91CF91DF9108950C94B72844
:1041B0000E94E128D8F3E894E0E0BB279F57F0F095
:1041C0002AED3FE049EC06C0EE0FBB0F661F771FDC
:1041D000881F28F0B23A62077307840728F0B25AA2
:1041E000620B730B840BE3959A9572F7803830F469
:1041F0009A95BB0F661F771F881FD2F790480C94C3
:104200007621EF93E0FF07C0A2EA2AED3FE049ECF8
:104210005FEB0E94711F0E94C8280F90039401FC5D
:104220009058E7EFF0E00C9489210E94202808F4D0
:104230008FEF08959B01AC0160E070E080E89FE3A0
:104240000C943D209F930E94D8200F9007FCEE5FB6
:104250000C94012119F416F40C94B7280C947421D1
:104260000E94E128B8F39923C9F3B6F39F57550B81
:1042700087FF0E9482210024A0E640EA9001805836
:104280005695979528F4805C660F771F881F20F05D
:1042900026173707480730F4621B730B840B20295D
:1042A00031294A2BA69517940794202531254A27B2
:1042B00058F7660F771F881F20F026173707480723
:1042C00030F4620B730B840B200D311D411DA09542
:1042D00081F7B901842F9158880F96958795089595
:1042E0009B01AC010C9444289F3F31F0915020F485
:1042F000879577956795B795880F911D96958795C2
:1043000097F9089591505040660F771F881FD2F794
:1043100008959F938F937F936F93FF93EF939B01E8
:10432000AC010E944428EF91FF910E94AF202F9191
:104330003F914F915F910C944428CF93DF9382304B
:10434000910510F482E090E0E0916804F091690436
:1043500020E030E0C0E0D0E0309711F140815181A1
:1043600048175907C0F04817590761F482819381B3
:10437000209719F09B838A832BC0909369048093C4
:10438000680426C02115310519F04217530718F4A7
:104390009A01BE01DF01EF010280F381E02DDCCF45
:1043A0002115310509F1281B390B2430310590F412
:1043B00012968D919C9113976115710521F0FB0167
:1043C0009383828304C09093690480936804FD0101
:1043D000329644C0FD01E20FF31F81939193225066
:1043E00031092D933C933AC02091660430916704C3
:1043F000232B41F42091160130911701309367046B
:104400002093660420911401309115012115310586
:1044100041F42DB73EB74091180150911901241B6A
:10442000350BE0916604F0916704E217F307A0F4FE
:104430002E1B3F0B2817390778F0AC014E5F5F4FFA
:104440002417350748F04E0F5F1F509367044093C1
:1044500066048193919302C0E0E0F0E0CF01DF9128
:10446000CF9108950F931F93CF93DF93009709F493
:104470008CC0FC0132971382128200916804109163
:1044800069040115110581F420813181820F931F88
:1044900020916604309167042817390779F5F09365
:1044A0006704E093660471C0D80140E050E0AE17A5
:1044B000BF0750F412962D913C911397AD01211531
:1044C000310509F1D901F3CF9D01DA01338322834C
:1044D00060817181860F971F8217930769F4EC0141
:1044E00028813981260F371F2E5F3F4F318320836C
:1044F0008A819B8193838283452B29F4F0936904FD
:10450000E093680442C01396FC93EE931297ED017A
:10451000499159919E01240F351FE217F30771F459
:1045200080819181840F951F029611969C938E93A2
:104530008281938113969C938E931297E0E0F0E032
:10454000D80112968D919C911397009719F0F8015C
:104550008C01F6CF8D919C9198012E5F3F4F820F79
:10456000931F20916604309167042817390769F476
:10457000309729F4109269041092680402C01382E3
:1045800012821093670400936604DF91CF911F910C
:104590000F910895A0E0B0E0E0EDF2E20C94432921
:1045A000EC01009721F4CB010E949D21B8C0FC01D1
:1045B000E60FF71F9C0122503109E217F30708F4B8
:1045C000ACC0D9010D911C91119706171707B0F0D7
:1045D0000530110508F49FC0C80104978617970796
:1045E00008F499C002501109061B170B019311938F
:1045F0006D937C93CF010E9432228DC05B01A01A83
:10460000B10A4C01800E911EA0916804B09169041A
:1046100040E050E0E12CF12C109709F44AC0A815B5
:10462000B905D1F56D907C901197630182E0C80EB9
:10463000D11CCA14DB0480F1A3014A195B096A0189
:1046400082E0C80ED11C1296BC9012971396AC91C2
:10465000B5E0CB16D10440F0B282A38351834083EE
:10466000D9016D937C930AC00E5F1F4FC301800F69
:10467000911FF90191838083EB2DFA2FE114F1044E
:1046800031F0D7011396FC93EE93129744C0F09348
:104690006904E09368043FC08D919C91119748177D
:1046A000590708F4AC017D0112960D90BC91A02D24
:1046B000B3CF809166049091670488159905E1F461
:1046C00046175707C8F4809114019091150100977F
:1046D00041F48DB79EB74091180150911901841B88
:1046E000950BE817F907C8F4F0936704E0936604A4
:1046F000F901718360830FC0CB010E949D217C0171
:10470000009759F0A801BE010E94A623CE010E9485
:104710003222C70104C0CE0102C080E090E0CDB7D4
:10472000DEB7EEE00C945F2981E090E0F8940C9401
:104730008529FB01DC0104C08D910190801921F4D1
:1047400041505040C8F7881B990B0895FB01DC01CC
:1047500002C001900D9241505040D8F70895DC01FD
:1047600001C06D9341505040E0F70895FB01DC011A
:104770008D91019080190110D9F3990B0895FB01D7
:10478000DC0101900D920020E1F70895FB01DC01AE
:104790004150504048F001900D920020C9F701C0EF
:1047A0001D9241505040E0F70895EF920F931F93F0
:1047B000CF93DF93E80147FD02C034E001C034E14C
:1047C000E42F440FFF0BF7FF03C0F195E195F109CA
:1047D000E32E022F2E2FAE010E946525CE01DF9120
:1047E000CF911F910F91EF900895A0E0B0E0EBEF13
:1047F000F3E20C943F295C016B017A0161157105AC
:1048000019F0FB0191838083E114F10429F0C701C1
:104810000297839708F0F1C0E5012196F501108118
:10482000812F90E00E942425892B11F05E01F4CFA6
:104830001D3229F42196F501118101E007C01B32D8
:1048400021F4E5012296F501118100E0E114F10463
:1048500059F1F0E1EF16F10461F41033E1F48881CD
:104860008F7D883569F519812296026070E1E72E07
:10487000F12C88E0E816F10439F12CF4F2E0EF169F
:10488000F104C9F12AC08AE0E816F10479F0E0E108
:10489000EE16F10411F550E1E52EF12C812C912C4E
:1048A000A12C68E0B62E2CC01033C9F23AE0E32EFA
:1048B000F12C4CEC842E982CA82C4CE0B42E20C06B
:1048C00010E3E114F104A9F698E0E92EF12C812C13
:1048D000912CA12C20E1B22E13C060E070E080E0AA
:1048E00090E897010F2C000C440B550B0E941229E5
:1048F00049015A0105C0812C912CA12C80E4B82ECD
:1049000060E020E030E0A90127010F2C000C6608D0
:1049100077081E01E0EDE10FEA3060F08FEB810FC8
:104920008A3110F4E9EC05C08FE9810F8A3128F54E
:10493000E9EAE10F8E2F90E08E159F05F4F467FDF4
:1049400018C082169306A406B50690F0C301B20102
:104950000E9402299B01AC012E0F311D411D511DEA
:10496000213031054105F0E85F0710F461E001C036
:104970006FEF2196F1011081CCCF802F8170C1148F
:10498000D10471F0662329F02197F601D183C08309
:1049900007C001FF19C02297F601D183C08314C05C
:1049A00067FF12C0811105C02FEF3FEF4FEF5FE7A8
:1049B00004C020E030E040E050E882E290E09093D4
:1049C0006B0480936A0416C0882341F0509540958B
:1049D000309521953F4F4F4F5F4F0CC057FF0AC096
:1049E00082E290E090936B0480936A042FEF3FEF94
:1049F0004FEF5FE7B901CA0104C060E070E080E0FA
:104A000090E0CDB7DEB7E2E10C945B29FC0188278A
:104A10009927E89421912032E9F3293010F02E30C3
:104A2000C8F32B3241F02D3239F4689404C00E944F
:104A30004325820F911D219120532A30C0F31EF48B
:104A4000909581959F4F089591110C94CB278032BA
:104A500019F089508550C8F708954532510520F462
:104A6000423010F00C943825FB011082CB010895E0
:104A7000BB274A3031F4992322F4BDE29095819509
:104A80009F4F0C944C257AE0979F902D879F802D07
:104A9000910D11240895BB27FB015527AA27880FE4
:104AA000991FAA1FA41710F0A41B83955051B9F7A2
:104AB000A05DAA3308F0A95DA193009779F7B11121
:104AC000B1931192CB010C94CE274F925F926F92CB
:104AD0007F929F92AF92BF92CF92DF92EF92FF921E
:104AE0000F931F93CF93DF93CDB7DEB729970FB600
:104AF000F894DEBF0FBECDBF6A01122FB02E2BE39C
:104B0000201720F0FF24F394F00E02C0BCE3FB2E2C
:104B10000F2D27E0AE014F5F5F4F0E94F326AC01DF
:104B20008981982F9970913031F0E1FC06C0E0FE48
:104B300006C090E205C09DE203C09BE201C090E088
:104B4000EE2DE07183FF3CC0911102C083E001C0F3
:104B500084E0811718F4212F281B01C020E0E11107
:104B60000BC0F601822F30E2882319F03193815077
:104B7000FBCFC20ED11C20E0992329F0D6019C93D3
:104B8000F60131966F01C6010396E2FE0AC03EE4CB
:104B9000D6013C9341E411964C93119712963C93A5
:104BA00006C03EE6F601308341E641833283FC01D4
:104BB000322F40E2332309F442C041933150FACFFF
:104BC00082FF44C0911102C083E001C084E08117DC
:104BD00018F4212F281B01C020E0E1110BC0F601C1
:104BE000822F30E2882319F031938150FBCFC20E1F
:104BF000D11C20E0992329F0D6019C93F60131962F
:104C00006F01C6010396E2FE0BC039E4D6013C9366
:104C10003EE411963C93119736E412963C9307C0FC
:104C200039E6F60130833EE6318336E63283FC0115
:104C3000322F40E2332319F041933150FBCFFC0176
:104C4000E20FF11D10828EEF9FEFB7C0F1E09111DE
:104C500001C0F0E06F2F70E01416150624F49A01DD
:104C60002F5F3F4F02C021E030E0260F371FBB20EF
:104C700029F06B2D70E06F5F7F4F02C060E070E045
:104C8000260F371F612F70E0261737071CF4121B01
:104C9000212F01C020E03E2D387159F4D601322F6A
:104CA00060E2332319F06D933150FBCFC20ED11C5B
:104CB00020E0FF2331F0D6019C93B6016F5F7F4F58
:104CC0006B01E1110BC0F601922F30E3992319F02B
:104CD00031939150FBCFC20ED11C20E09F2D940F39
:104CE0003A81782F7071A72E84FF03C0313309F405
:104CF0009150191624F4993018F098E001C091E011
:104D0000E42F852F57FF02C0E0E080E06E2F782F60
:104D1000E0E0F0E0AEE29A2E3A01691A71082A0149
:104D2000461A570A0B2D10E01195019511096F3F96
:104D30008FEF780729F4D6019C92C60101966C0189
:104D40004617570784F0661677066CF47F01E40C6B
:104D5000F51CA1E0B0E0AC0FBD1FEA0EFB1ED701B1
:104D60001196BC9002C090E3B92E61507109319642
:104D7000C60101967C016017710724F0D601BC9230
:104D80006C01D5CF6417750741F4363320F4353301
:104D900021F4A11002C081E3B82EF601B082F70120
:104DA000822F90E2882319F091938150FBCFF70175
:104DB000E20FF11D108280E090E029960FB6F89482
:104DC000DEBF0FBECDBFDF91CF911F910F91FF903E
:104DD000EF90DF90CF90BF90AF909F907F906F90BB
:104DE0005F904F900895283008F027E03327DA01CC
:104DF000990F311D87FD916000966105710539F4A9
:104E000032602E5F3D9330E32A95E1F708959F3F8E
:104E100030F080387105610509F03C5F3C5F3D93DF
:104E2000913008F08068911DDF93CF931F930F930B
:104E3000FF92EF92192F987F9695E92F9695969568
:104E4000E90FFF27EC50FD4F99273327EE24FF246D
:104E5000A701E70105900894079428F4360FE71E90
:104E6000F81E491F511D660F771F881F991F069452
:104E7000A1F70590079428F4E70EF81E491F561F66
:104E8000C11D770F881F991F661F0694A1F7059013
:104E9000079428F4F80E491F561FC71FD11D880F0D
:104EA000991F661F771F0694A1F70590079420F4B9
:104EB000490F561FC71FD81F990F661F771F881FDE
:104EC0000694A9F784911095177041F0D695C7956F
:104ED00057954795F794E7941A95C1F7EAE9F2E0F8
:104EE00068941590159135916591959105907FE2A3
:104EF0007395E118F10A430B560BC90BD009C0F7A3
:104F0000E10CF11E431F561FC91FD01D7EF47033E4
:104F100011F48A95E6CFE894015030F0080F0AF4B6
:104F20000027021708F4202F2395022F7A3328F048
:104F300079E37D932A95E9F710C07D932A9589F648
:104F4000069497956795379517951794E118F10A88
:104F5000430B560BC90BD00998F023957E9173959E
:104F60007A3308F070E37C932013B8F77E91706178
:104F70007D9330F0839571E37D9370E32A95E1F79B
:104F80001124EF90FF900F911F91CF91DF919927FE
:104F900087FD90950895992788270895DC01FC01E5
:104FA000672F71917723E1F7329704C07C916D935D
:104FB00070836291AE17BF07C8F308950E9420283E
:104FC00008F481E00895E89409C097FB3EF49095B9
:104FD0008095709561957F4F8F4F9F4F9923A9F0D2
:104FE000F92F96E9BB279395F69587957795679561
:104FF000B795F111F8CFFAF4BB0F11F460FF1BC0A5
:105000006F5F7F4F8F4F9F4F16C0882311F096E937
:1050100011C0772321F09EE8872F762F05C06623E5
:1050200071F096E8862F70E060E02AF09A95660F9E
:10503000771F881FDAF7880F9695879597F9089557
:10504000990F0008550FAA0BE0E8FEEF1616170699
:10505000E807F907C0F012161306E407F50798F001
:10506000621B730B840B950B39F40A2661F0232B1A
:10507000242B252B21F408950A2609F4A140A69596
:105080008FEF811D811D08950E9457280C94C82818
:105090000E94BA2838F00E94C12820F0952311F010
:1050A0000C94B1280C94B72811240C94FC280E946D
:1050B000D92870F3959FC1F3950F50E0551F629F5B
:1050C000F001729FBB27F00DB11D639FAA27F00D61
:1050D000B11DAA1F649F6627B00DA11D661F829F88
:1050E0002227B00DA11D621F739FB00DA11D621F6D
:1050F000839FA00D611D221F749F3327A00D611D8A
:10510000231F849F600D211D822F762F6A2F11246B
:105110009F5750409AF0F1F088234AF0EE0FFF1F9E
:10512000BB1F661F771F881F91505040A9F79E3FF5
:10513000510580F00C94B1280C94FC285F3FE4F3F7
:10514000983ED4F3869577956795B795F795E7954B
:105150009F5FC1F7FE2B880F911D9695879597F954
:10516000089597F99F6780E870E060E008959FEFE9
:1051700080EC089500240A941616170618060906EE
:10518000089500240A9412161306140605060895BD
:10519000092E0394000C11F4882352F0BB0F40F445
:1051A000BF2B11F460FF04C06F5F7F4F8F4F9F4F85
:1051B000089557FD9058440F551F59F05F3F71F007
:1051C0004795880F97FB991F61F09F3F79F087956E
:1051D0000895121613061406551FF2CF4695F1DFF7
:1051E00008C0161617061806991FF1CF8695710587
:1051F000610508940895E894BB2766277727CB01BB
:1052000097F90895DB018F939F930E943429BF91F2
:10521000AF91A29F800D911DA39F900DB29F900D05
:1052200011240895A1E21A2EAA1BBB1BFD010DC07B
:10523000AA1FBB1FEE1FFF1FA217B307E407F50746
:1052400020F0A21BB30BE40BF50B661F771F881F22
:10525000991F1A9469F760957095809590959B01B8
:10526000AC01BD01CF0108950E947629A59F900D44
:10527000B49F900DA49F800D911D112408952F922D
:105280003F924F925F926F927F928F929F92AF92D6
:10529000BF92CF92DF92EF92FF920F931F93CF9323
:1052A000DF93CDB7DEB7CA1BDB0B0FB6F894DEBFBA
:1052B0000FBECDBF09942A88398848885F846E84E0
:1052C0007D848C849B84AA84B984C884DF80EE802A
:1052D000FD800C811B81AA81B981CE0FD11D0FB633
:1052E000F894DEBF0FBECDBFED010895A29FB001BF
:1052F000B39FC001A39F700D811D1124911DB29F0A
:10530000700D811D1124911D089511E0CBECD1E0A9
:1053100004C0FE010E94531F2196CC3CD107C9F75F
:04532000F894FFCF2F
:10532400FFFFFFFF00E100000000000000007544E3
:105334000080894400006C0480000100000000C16A
:105344008081000000000000007B094F0A9C09DAFC
:105354000AF80A9109000000001610D90FD10FBDF8
:105364000FAE0FAD0F00000000C0085B043F101F1C
:1053740015421000000000C10859041002C6118330
:105384001000000000000000001002C616C616003F
:105394000000006806F905C80561050E05F6010060
:1053A400020D0A4F4B0D0A002B2B2B004F4B0045CF
:1053B40052524F520041542B485756424154004CCC
:1053C400534D3330330041542B48574D6F64654C73
:1053D40045443D4D4F4445003030300031303000BD
:1053E4003031300030303100313130003130310073
:1053F400303131003131310041542B424C4555415B
:0A540400525454583D002C007C0067
:00000001FF
