:100000000C94CF010C94F7010C94F7010C94F701B8
:100010000C94F7010C94F7010C94F7010C94F70180
:100020000C94F7010C94631A0C9427230C94AE21C2
:100030000C94F7010C94F7010C94F7010C94F70160
:100040000C94F7010C94F7010C94F7010C94F70150
:100050000C94F7010C94F7010C94F7010C94DD1A41
:100060000C94F7010C94F7010C94F7010C94F70130
:100070000C94F7010C94F7010C94F7010C94F70120
:100080000C94F7010C94F7010C94F7010C94F70110
:100090000C946D160C94F7010C94F7010C94F70175
:1000A0000C94F7010C94F7010C94F701381C3B1CDD
:1000B0002A1C2E1C341C5C1C5C1C5C1C3F1C431C3E
:1000C000471C4D1C511C5C1C571C084AD73B3BCE9F
:1000D000016E84BCBFFDC12F3D6C74319ABD568347
:1000E0003DDA3D00C77F11BED9E4BB4C3E916BAAFF
:1000F000AABE000000803F05A84CCDB2D44EB9384E
:1001000036A9020C50B9918688083CA6AAAA2ABE34
:10011000000000803F0041542B424C45504F574552
:10012000524C4556454C3D340041542B47415049B3
:100130004E54455256414C533D31352C3137302CBD
:1001400031352C38350041542B4741504445564EEB
:10015000414D453D4C49474E554D000A3C2D200030
:100160000A3C2D200041542B474150474554434FF2
:100170004E4E004154450041542B464143544F528A
:1001800059524553455400070605040100080A0B5F
:100190000C0D090000000200090F0000030401001B
:1001A0000C00000000000000000000000000000043
:1001B0000000040802011040804010204080408070
:1001C00008020401804020100201108010204040ED
:1001D00020040404040403040502020202040302CE
:1001E00002020206060606060604040202020404CF
:1001F000000000002300260029002C002F00000032
:100200000000250028002B002E0031000000000017
:10021000240027002A002D003000080B00020202F3
:100220000100090400000102020000052400100181
:100230000524010101042402060524060001070526
:10024000810310004009040100020A0000000705B4
:100250000202400000070583024000001201000274
:10026000EF0201409A230C800001010203011201F8
:100270000002000000409A230C80000101020301EB
:10028000416461667275697400466561746865727F
:100290002033327534000403090400407A10F35A05
:1002A00000A0724E18090010A5D4E80000E87648B6
:1002B000170000E40B54020000CA9A3B000000E162
:1002C000F505000080969800000040420F000000F5
:1002D000A08601000000102700000000E8030000D5
:1002E00000006400000000000A000000000001009F
:1002F000000000002C76D888DC674F0823DFC1DFC0
:10030000AE59E1B1B796E5E3E453C63AE6519976C2
:1003100096E8E6C28426EB898C9B62ED407C6FFCFC
:10032000EFBC9C9F40F2BAA56FA5F490055A2AF73E
:100330005C936B6CF9676DC11BFCE0E40D47FEF547
:1003400020E6B500D0ED902E0300943577050080AF
:10035000841E080000204E0A000000C80C3333330E
:10036000330F986E12831141EF8D2114893BE655AE
:1003700016CFFEE6DB18D1844B381BF77C1D901D91
:10038000A4BBE424203284725E228100C9F124ECF3
:10039000A1E53D274206DB0E8B15EC1D63061124FB
:1003A0001FBECFEFDAE0DEBFCDBF12E0A0E0B1E0CC
:1003B000E4EDF0E602C005900D92A635B107D9F73D
:1003C00027E0A6E5B2E001C01D92A837B207E1F729
:1003D00013E0CCE9D3E004C02297FE010E94BA29C1
:1003E000C439D107C9F70E946B250C945D300C9479
:1003F000000026EA31E0FC0131832083089508954E
:1004000026EA31E0FC01318320830C947E2588E5C7
:1004100092E00E94C12386EA91E0909311058093B7
:100420001005909327058093260508950E9449257D
:1004300091E0811190E0892F0895EF92FF920F9340
:100440001F93E12CF12C00E010E020E040E050E0B0
:100450000E94A4081F910F91FF90EF9008950F93B1
:1004600066E271E08AE395E00E94B71E20913E05A6
:1004700030913F0500E040E450E068E475E08AE335
:1004800095E00E94780688E495E00E94232D8C3147
:100490009C401CF460E571E002C064E471E088E512
:1004A00092E00E94652410925702109256020F911A
:1004B0000895EF92FF920F931F9340E052EC61E09A
:1004C00070E08AE097E00E94E61D60E08AE395E034
:1004D0000E947D0B8AE395E00E940B0960E08AE3AD
:1004E00095E00E94290910924705E12CF12C00E0CB
:1004F00010E020E040E050E060E371E08AE395E046
:100500000E94630866E471E08AE395E00E941D02A0
:1005100069E271E08AE395E00E941D0266E171E004
:100520008AE395E00E941D028AE395E00E945B0940
:10053000811107C064E670E080E090E00E94561BE5
:10054000F3CF86E295E00E94AC1180E195E00E9435
:10055000F11162E08DE00E945D1C62E08CE00E947F
:100560005D1C62E08BE00E945D1C60E082E10E9405
:100570005D1C60E083E10E945D1C1F910F91FF9064
:10058000EF900C942F020F931F93CF93DF93CDB76F
:10059000DEB76E970FB6F894DEBF0FBECDBF8BE00F
:1005A0000E94CC1C61E070E0892B11F060E070E0EB
:1005B0004AE0CE0101960E947D248CE00E94CC1C72
:1005C00061E070E0892B11F060E070E04AE0CE015C
:1005D0000D960E947D248DE00E94CC1C61E070E0AD
:1005E000892B11F060E070E04AE0CE0143960E9452
:1005F0007D24BE016D5E7F4FCE0107960E945C2474
:10060000BE01635F7F4FCE0107960E941C25BE018D
:100610006F5F7F4F0E941C25BC01CE0149960E944E
:100620005C24CE0107960E94C123CE0143960E940E
:10063000C123CE010D960E94C123CE0101960E94D6
:10064000C12362E471E0CE0149960E9449258111DF
:100650003DC066E471E0CE0149960E9449258111B2
:1006600037C06AE471E0CE0149960E9449258111A4
:1006700031C06EE471E0CE0149960E944925811196
:100680002BC062E571E0CE0149960E944925811197
:1006900025C066E571E0CE0149960E944925811189
:1006A0001FC06AE571E0CE0149960E94492581117B
:1006B00019C06EE571E0CE0149960E94492581116D
:1006C00013C0CE0149960E94C12315C000E00DC0A1
:1006D00001E00BC002E009C003E007C004E005C070
:1006E00005E003C006E001C007E010E0CE01499636
:1006F0000E94C123C8016E960FB6F894DEBF0FBEEC
:10070000CDBFDF91CF911F910F910895CF93DF93CC
:1007100082E10E94EF1B97FD0796EC0133E0D5952F
:10072000C7953A95E1F783E10E94EF1B97FD079685
:1007300023E0959587952A95E1F79C012B50310987
:100740002D31310580F49E012952310927323105BE
:1007500070F1225E3F4F2D31310560F12654310991
:100760002D31310550F19C01215531092D313105D3
:1007700080F49E01295231092732310508F1225EA9
:100780003F4F2D313105F8F0265431092D31310517
:10079000E8F08997879700F5CE010B974D97C8F041
:1007A000C155D1096D97C0F483E090E017C081E096
:1007B00090E014C088E090E011C082E090E00EC0AC
:1007C00085E090E00BC086E090E008C084E090E017
:1007D00005C087E090E002C080E090E0DF91CF911B
:1007E0000895FF920F931F93CF93DF93EC01F62EA2
:1007F0008A016EEE71E00E942F2424E130E044E68D
:1008000050E0B80187EB94E00E94FF1929E5F21649
:10081000A1F02AE5F216E9F028E5F21228C00097C7
:1008200031F18F3F2FEF920729F0019701F562E632
:1008300071E01AC06AE671E017C08F3F2FEF920790
:1008400029F00197A1F463E771E00EC068E771E059
:100850000BC08F3F2FEF920729F0019741F46EE70D
:1008600071E002C061E871E0CE010E946524CE0112
:10087000DF91CF911F910F91FF900895CF92DF925A
:10088000EF92FF920F931F93CF93DF93CDB7DEB715
:10089000A4970FB6F894DEBF0FBECDBF6CEE74E028
:1008A00086E295E00E94A01248EB54E06CEE74E002
:1008B00089E395E00E949B17882309F4C8C068EC7F
:1008C00074E080E195E00E94931328EB34E048EC5B
:1008D00054E063E070E089E395E00E949719882373
:1008E00009F4B5C02CEE34E048EC54E063E070E06D
:1008F00089E395E00E944018882309F4A8C00E946B
:10090000C3024AE0BC01CE0101960E947D240E94F0
:1009100086034AE0BC01CE0107960E947D244091E7
:10092000C0045091C1046091C2047091C30422E0DC
:10093000CE010D960E94A9244091BC045091BD04A3
:100940006091BE047091BF04705822E0CE014396BE
:100950000E94A9244091B8045091B9046091BA044E
:100960007091BB0422E0CE014F960E94A92466E854
:1009700071E0CE0149960E942F24BE01615E7F4F37
:10098000CE0149960E941C2564E971E00E942F2542
:10099000BE016D5E7F4F0E941C2564E971E00E94DC
:1009A0002F25BE01635F7F4F0E941C2564E971E023
:1009B0000E942F25BE01695F7F4F0E941C2564E9BC
:1009C00071E00E942F25BE016F5F7F4F0E941C25A2
:1009D00064E971E00E942F2568E572E00E941C2501
:1009E00066E971E00E942F25BC018AE395E00E9430
:1009F000A51ECE0149960E94C123CE014F960E94AA
:100A0000C123CE0143960E94C123CE010D960E94C0
:100A1000C123CE0107960E94C123CE0101960E94F8
:100A2000C1238091560290915702813E2EE2920797
:100A30001CF00E942F0205C00196909357028093EC
:100A4000560265E070E080E090E00E94561B8DE069
:100A50000E94CC1C892B09F006C180915E02811195
:100A600002C10FEE13E047E2E42E43E0F42E5FE50F
:100A7000C52E52E0D52E6CEE74E086E295E00E9421
:100A8000A01260910005709101058091020590917E
:100A900003050E945227F801619371938F016091C1
:100AA00004057091050580910605909107050E9447
:100AB0005227F701619371937F016091080570914E
:100AC000090580910A0590910B050E945227F601B5
:100AD000619371936F01F4E0073B1F0761F64FEEDE
:100AE00053E068E5CE0149960E94F10347E253E0E6
:100AF00069E5CE0143960E94F1034FE552E06AE5B5
:100B0000CE010D960E94F1036EEE71E0CE010796C4
:100B10000E942F246EEE71E0CE0149960E941602CB
:100B20008823B9F0BE01675E7F4FCE0107960E9411
:100B300005256EEE71E0CE0143960E9416028111EA
:100B40008BC06EEE71E0CE010D960E9416028111EF
:100B500083C06EEE71E0CE0143960E941602882398
:100B6000A9F0BE016D5E7F4FCE0107960E9405255C
:100B70006EEE71E0CE010D960E941602882331F0D0
:100B800068E971E0CE0107960E940C256EEE71E0D7
:100B9000CE010D960E941602882339F0BE01635FD4
:100BA0007F4FCE0107960E9405256EEE71E0CE01C3
:100BB00007960E9416028823B9F16AE971E0CE0116
:100BC00001960E942F24BE01695F7F4FCE010196DE
:100BD0000E941C2566E971E00E942F25BC01CE0110
:100BE00007960E944524CE0101960E94C123BE01B2
:100BF000695F7F4F8AE097E00E94A51E66E871E07A
:100C0000CE0101960E942F24BE01695F7F4FCE0165
:100C100001960E941C25BC018AE395E00E94A51E56
:100C2000CE0101960E94C1238DE00E94CC1C892B2D
:100C300011F010925E02CE0107960E94C123CE01F0
:100C40000D960E94C123CE0143960E94C123CE017E
:100C500049960E94C12307C068E971E0CE0107965A
:100C60000E940C2576CFA4960FB6F894DEBF0FBE77
:100C7000CDBFDF91CF911F910F91FF90EF90DF904B
:100C8000CF90089524E047E068E08AE395E00E9471
:100C9000E50989E395E00E949A174DE556E760E083
:100CA00070E086E295E00E9482104EE556E760E033
:100CB00070E080E195E00E948C1064E471E088E5CA
:100CC00092E00C942F240C940702FC0113821282F0
:100CD00048EE53E060E070E0448355836683778399
:100CE00088EC91E09183808381E084871586089564
:100CF0008F929F92AF92BF92CF92DF92EF92FF922C
:100D00000F93CF93DF937C015B014A016901C0E03F
:100D1000D0E0C114D10471F1D701ED91FC910480B0
:100D2000F581E02DC7010995892BC9F0D701ED9117
:100D3000FC910680F781E02DC70109958D3061F3A4
:100D40008A3021F4209741F3002359F1F501EC0F8B
:100D5000FD1F80832196C815D905F0F222C0B1E0AD
:100D6000CB1AD108B1F261E070E080E090E00E941F
:100D7000561BCFCFF501EC0FFD1F1082F7018585C3
:100D8000882391F0209781F0B5018AE097E00E94D6
:100D9000861EC815D90540F48AE097E00E948F1E90
:100DA00003C0C12CD12CB5CFCE01DF91CF910F91D3
:100DB000FF90EF90DF90CF90BF90AF909F908F907B
:100DC0000895CF92DF92EF92FF920F93CF93DF932C
:100DD000CDB7DEB7C154D1090FB6F894DEBF0FBE50
:100DE000CDBF7C01FC018585882331F060E671E090
:100DF0008AE097E00E94551E6701FEE0CF0ED11CED
:100E0000F7012481358100E040E450E0BE016F5FCE
:100E10007F4FC7010E947806892BC9F060EB71E013
:100E2000CE0101960E94662D892B79F063EB71E06B
:100E3000CE0101960E94662D892B49F0BE016F5F9D
:100E40007F4FC6010E946F2DDBCF81E001C080E0A3
:100E5000CF5BDF4F0FB6F894DEBF0FBECDBFDF9183
:100E6000CF910F91FF90EF90DF90CF9008950F9367
:100E7000CF93DF93EC012E96FC012481358100E0B5
:100E800040E450E0BE010E947806892B51F040E01A
:100E900050E060E070E0CE01DF91CF910F910C94B3
:100EA000EA2B60E070E0CB01DF91CF910F910895C4
:100EB000DF92EF92FF920F931F93CF93DF93EC019A
:100EC0008A01015011097B010F3FFFEF1F0781F1DC
:100ED000F701D1907F01E881F9810190F081E02D47
:100EE0008D2D82958F708A3010F460E301C067E326
:100EF000680FCE010995E881F9810190F081E02D1C
:100F00008D2D8F708A3010F460E301C067E3680FA5
:100F1000CE0109950115110541F0E881F981019093
:100F2000F081E02D6DE2CE01099501501109CCCF81
:100F30008CEF9FEFDF91CF911F910F91FF90EF907A
:100F4000DF9008957F928F929F92AF92BF92CF923F
:100F5000DF92EF92FF920F931F93CF93DF93EC01F9
:100F60005B01742E6901E12CF12C842E912C21E07F
:100F7000821A91088E2DE71408F07EC0811104C0FA
:100F80006DE3CE010E94881EF601419151916F01DF
:100F9000CA0188278115F4E09F07C1F198F48115F3
:100FA000E2E09E0759F18115F3E09F07D1F1811529
:100FB000914009F054C0F80160817181CE010E9416
:100FC000861E4DC08115E6E09E07B1F140F4811503
:100FD000954009F044C0F801608171813BC08115E2
:100FE000E7E09E0791F181159840C9F54AE050E08D
:100FF000F8016081CE010E94771F31C05527F801AA
:1010000060817181CE010E94580729C0F80140819A
:101010005181628173812AE030E0CE010E946A1F13
:101020001EC0F80140815181628173812AE030E065
:10103000CE010E94181F13C0F801608171814AE03F
:1010400050E0CE010E947E1F0AC0F8016081772720
:1010500067FD70954AE050E0CE010E94621FE814DF
:10106000F90421F06CE2CE010E94881EFFEFEF1A16
:10107000FF0A0C5F1F4F7ECFCE010E948F1EA1146E
:10108000B10489F08D85882331F06BE571E08AE049
:1010900097E00E94551ECE010E943707F50160833C
:1010A000718382839383CE01DF91CF911F910F9142
:1010B000FF90EF90DF90CF90BF90AF909F908F9078
:1010C0007F900C94E1067F928F929F92AF92BF9295
:1010D000CF92DF92EF92FF920F931F93CF93DF9304
:1010E000EC014B016A01722E58018701FC84F1105A
:1010F00007C0E881F9810484F585E02D61E0099558
:10110000B401CE010E94861E9501472DB601CE0185
:101110000E94A207182FF11008C0E881F981048409
:10112000F585E02D60E0CE010995812FDF91CF910B
:101130001F910F91FF90EF90DF90CF90BF90AF90F5
:101140009F908F907F9008957F928F929F92AF9201
:10115000BF92CF92DF92EF92FF920F931F93CF93A4
:10116000DF93EC014B016A01722E58018701FC8468
:10117000F11007C0E881F9810484F585E02D61E074
:101180000995B401CE010E94551E9501472DB60167
:10119000CE010E94A207182FF11008C0E881F98142
:1011A0000484F585E02D60E0CE010995812FDF9163
:1011B000CF911F910F91FF90EF90DF90CF90BF9054
:1011C000AF909F908F907F900895CF93DF93EC0125
:1011D0000E9465068AED91E0998388834AEF50E08A
:1011E00060E070E04C835D836E837F83FE01E05B93
:1011F000FF4F118210823296118210823296118234
:101200001082329611821082C85ADF4F19821882DA
:10121000DF91CF9108951F93CF93DF93EC0167E7A0
:1012200071E00E94931ECE010E94E106182F68EE25
:1012300073E080E090E00E94561BE881F98102840F
:10124000F385E02DCE010995812FDF91CF911F917C
:101250000895EF92FF920F931F93CF93DF9300D0E7
:1012600000D000D0CDB7DEB720E033E03E832D8341
:10127000462F50E060E070E049835A836B837C83A3
:101280009E012F5F3F4F79018E010B5F1F4F21E0C1
:1012900040E050E063E771E00E94A40826960FB694
:1012A000F894DEBF0FBECDBFDF91CF911F910F919C
:1012B000FF90EF900895EF92FF920F931F93CF93BB
:1012C000DF9300D000D0CDB7DEB719821A821B821F
:1012D0001C82E12CF12C00E010E020E0AE014F5F19
:1012E0005F4F65E671E00E94A40881E049815A8160
:1012F0006B817C81452B462B472B09F480E00F90B6
:101300000F900F900F90DF91CF911F910F91FF9051
:10131000EF900895623030F4FC012485261721F007
:10132000648702C080E0089581E008958F549F4F44
:101330000C94F20E0F931F93CF93DF93EC010E9456
:10134000271B088119812A813B81601B710B820B4D
:10135000930B41E00C811D812E813F816017710745
:101360008207930708F440E0842FDF91CF911F910B
:101370000F9108952091FB05222399F03FB7F8942F
:101380002091FB05213059F42DB32093F9054DB37D
:101390002091FA05209524232DBB3FBF02C0309336
:1013A000F9058CBD9DBD08958091FB05882361F0F2
:1013B0009FB7F8942091FB058091F905213019F42D
:1013C0008DBB9FBF08958FBF0895EF92FF920F933B
:1013D0001F93CF93DF93EC01E62EF42E122F0E9481
:1013E000E50887EF91E099838883BE016F587F4FAE
:1013F00001E021E040E450E0CE018F549F4F0E9475
:10140000E20EFE01E15BFF4F83E080833B96E082CA
:101410003196F0823196108331968FEF808331962A
:10142000808331968083C059DF4F1882DF91CF913E
:101430001F910F91FF90EF9008950F931F93CF93FB
:10144000DF931F92CDB7DEB7FC01348521E0231B6B
:10145000248721E3231B29838C010F541F4FBE01D6
:101460006F5F7F4FC8010E94FA0E46E050E068EEC1
:1014700071E0C8010E94350F0F90DF91CF911F914D
:101480000F9108958F929F92AF92BF92CF92DF9269
:10149000EF92FF920F931F93CF93DF93862EEC0171
:1014A000C35ADF4F28812F3F39F46EBD00000DB4C1
:1014B00007FEFDCF8EB534C007E010E0912CEE247E
:1014C000E394F12C6C012EE5C20ED11C5C01EFE51A
:1014D000AE0EB11C990C60E088810E94961C9701A9
:1014E000002E01C0220F0A94EAF7682D6223F6014C
:1014F00080810E94961C61E088810E94961CF50103
:1015000080810E94CC1C892B19F0F92DF1609F2E4F
:1015100001501109F8F660E088810E94961C892D1F
:10152000DF91CF911F910F91FF90EF90DF90CF90BF
:10153000BF90AF909F908F900895EF92FF920F937E
:101540001F93CF93DF937C01EB018A01060F171FD6
:10155000C017D10731F06881C7010E94420A899300
:10156000F7CFDF91CF911F910F91FF90EF900895EA
:101570007F928F929F92AF92BF92CF92DF92EF9223
:10158000FF920F931F93CF93DF93CDB7DEB76E9784
:101590000FB6F894DEBF0FBECDBF5C017A01722E8C
:1015A00001110BC0DC01ED91FC910284F385E02D6B
:1015B0006D8F7E8F09957E8D6D8D80E189837B8314
:1015C0006A838C818078972D9F77892B8C83B0E1FB
:1015D0007B1202C0017001C000E08C8100FB87F922
:1015E0008C83E114F10449F0772039F0472D50E065
:1015F000B701CE0105960E94562D4501EDE58E0EF0
:10160000911CD4018C918F3F31F48091F70590911A
:10161000F8050E94BA098501065A1F4F60E0F801DB
:1016200080810E94961CD5011496CD90DD90ED909E
:10163000FC9017970E94271B6D8B7E8B8F8B988F4A
:10164000C98EDA8EEB8EFC8E6981C5010E94420A3A
:101650008E3F31F4CE0145960E949A098823F1F01D
:10166000CE0145960E949A09FF24F394F82651F082
:10167000472D50E04D5F5F4FBE016E5F7F4FC5014C
:101680000E949D0A61E0F80180810E94961CD401AD
:101690008C918F3F91F40E94D4090FC061E0F80152
:1016A00080810E94961C82E390E00E94901B60E083
:1016B000D8018C910E94961CC7CF8F2D6E960FB6C5
:1016C000F894DEBF0FBECDBFDF91CF911F910F9178
:1016D000FF90EF90DF90CF90BF90AF909F908F9052
:1016E0007F9008950F9300E020E040E050E06FEE1F
:1016F0007EEB0E94B80A0F9108950F931F93CF932A
:10170000DF93EC016D87FC01E55AFF4F60E08081BB
:101710000E945D1C8E01065A1F4F61E0F801808116
:101720000E945D1C61E0F80180810E94961C0D5FA3
:101730001F4FF80180818F3F19F40E94AA0F16C035
:1017400061E00E945D1C60E0F80180810E94961CAF
:1017500060E0FE01E15AFF4F80810E945D1C61E064
:10176000FE01E25AFF4F80810E945D1CCE010E9463
:10177000720B182FC45ADF4F888187FD16C061E0B5
:101780000E945D1C61E088810E94961C60E0888157
:101790000E94961C6AE070E080E090E00E94561B78
:1017A00061E088810E94961C11E068EE73E080E0A1
:1017B00090E00E94561B812FDF91CF911F910F91D6
:1017C00008954F925F926F927F92AF92BF92CF92A5
:1017D000DF92EF92FF920F931F93CF93DF93CDB7DA
:1017E000DEB728970FB6F894DEBF0FBECDBF5C0101
:1017F0008B01FC01C480D580E680F780CC0CDD1C19
:10180000EE1CFF1C0E94271B69837A838B839C83B9
:10181000CD82DE82EF82F8867501FBE5EF0EF11CCA
:10182000F70180810E94CC1C892B41F4CE010196E6
:101830000E949A098823A1F380E0A5C06501FDE517
:10184000CF0ED11CF60180818F3F31F48091F705D6
:101850009091F8050E94BA097501FAE5EF0EF11CA6
:1018600060E0F70180810E94961CF501448055805C
:10187000668077800E94271B69837A838B839C8391
:101880004D825E826F827886CE0101960E949A090F
:1018900081111CC06FEFC5010E94420AF8018083CC
:1018A0008E5F823070F461E0F70180810E94961CA7
:1018B00082E390E00E94901B60E0F70180810E942B
:1018C000961CF80180818E5F8230F0F2F8018081F1
:1018D000803249F0803839F0CE0101960E949A0991
:1018E000882309F449C0CE0101960E949A0981110A
:1018F00018C08FEF9FEFAFEFF80181839283A3832E
:1019000043E050E0B8016F5F7F4FC5010E949D0A20
:10191000F801618182810E94BC23F8012081203876
:1019200011F410E01CC09A500397D8F7F8014381D6
:101930004F7750E041315105A4F73801F4E06F0EC4
:10194000711C6FEF70E0C3010E945F2DF8014381AD
:101950004F7750E0B301C5010E949D0A11E061E09C
:10196000F70180810E94961CF60180818F3F11F45F
:101970000E94D409812F07C06FEFC5010E94420A5F
:10198000F8018083A3CF28960FB6F894DEBF0FBE70
:10199000CDBFDF91CF911F910F91FF90EF90DF901E
:1019A000CF90BF90AF907F906F905F904F900895D1
:1019B000AF92BF92CF92DF92EF92FF920F931F935D
:1019C000CF93DF93CDB7DEB764970FB6F894DEBF41
:1019D0000FBECDBF7C018C010F541F4F44E1A42EDC
:1019E000CE0101966C01F8018681978122813381B5
:1019F000281B390B20313105D0F0F6018A2D1192C8
:101A00008A95E9F7B601C7010E94E10BB82E882339
:101A100081F04C814F7739F050E0BE016B5F7F4F12
:101A2000C8010E94350F8C8187FF03C0DCCFBB2427
:101A3000B3948B2D64960FB6F894DEBF0FBECDBF66
:101A4000DF91CF911F910F91FF90EF90DF90CF909A
:101A5000BF90AF900895AF92BF92CF92DF92EF9276
:101A6000FF920F93CF93DF9300D0CDB7DEB77C0109
:101A70006983FC01848581110EC000E021E0AE0184
:101A80004F5F5F4F61E07AE0C7010E94B80AC7016B
:101A90000E94D80C52C08981970120593F4F69019B
:101AA000F9018D3011F08A3001F520812223E1F116
:101AB0005701F0E6AF0EB11C43E050E06FEE71E06D
:101AC000C5012A830E94492D2A81892B21F4C7014F
:101AD0000E941D0A07C000E0A50160E07AE0C7018E
:101AE0000E94B80AF60110821FC09081903191F4D3
:101AF00001E020E15701F0E6AF0EB11CA50160E066
:101B00007AE0C7010E94B80A8981F501808381E0EB
:101B1000F60109C021E0290FF6012083F701E90F42
:101B2000F11DE05AFF4F8083F7018585882329F056
:101B300069818AE097E00E94881E81E090E00F9022
:101B40000F90DF91CF910F91FF90EF90DF90CF90AA
:101B5000BF90AF9008958F929F92AF92BF92CF9215
:101B6000DF92EF92FF920F93CF93DF937C015B01A3
:101B7000EA01DC011C968C91882329F0C60FD71F3F
:101B8000C12CD12C39C04330510510F46E012CC04A
:101B900043E050E06FEE71E0C5010E94492D892BB2
:101BA000A9F7C330D10531F0F50183818D3011F0F3
:101BB0008A3061F7C7010E941D0A1CC04601F1E18D
:101BC000CF16D10418F050E1852E912CC818D908F1
:101BD00001E009F400E0282DA50161E07AE0C701E9
:101BE0000E94B80AA80CB91CC114D10439F7C70166
:101BF0000E94D80CCE0112C0AC16BD0671F0D50102
:101C00006D915D01D701ED91FC910190F081E02D86
:101C1000C7010995C80ED91EEFCFC601DF91CF913C
:101C20000F91FF90EF90DF90CF90BF90AF909F907B
:101C30008F900895EF92FF920F93CF93DF93EC0173
:101C40007C0181EBE80EF11CF70186819781892BDD
:101C500081F48C85811115C000E020E040E050E067
:101C600062E07AE0CE010E94B80ACE010E94D80C50
:101C7000F70186819781DF91CF910F91FF90EF90CF
:101C80000895C55ADF4F8881DF91CF910F91FF9062
:101C9000EF900C94CC1CCF92DF92EF92FF920F93B7
:101CA000CF93DF931F92CDB7DEB77C016C0181EB40
:101CB000C80ED11CF60186819781892B39F0BE01AF
:101CC0006F5F7F4FC6010E94600F21C0F7018485BE
:101CD00081110AC000E020E040E050E062E07AE0DC
:101CE000C7010E94B80A08C0F701E55AFF4F80817A
:101CF0000E94CC1C892B19F0C7010E94D80CBE0190
:101D00006F5F7F4FC6010E94600F882319F08981A1
:101D100090E002C08FEF9FEF0F90DF91CF910F9176
:101D2000FF90EF90DF90CF900895CF92DF92EF92E7
:101D3000FF920F93CF93DF931F92CDB7DEB77C0155
:101D40006C0181EBC80ED11CBE016F5F7F4FC601D5
:101D50000E948E0F811121C0F701848581110AC074
:101D600000E020E040E050E062E07AE0C7010E943D
:101D7000B80A08C0F701E55AFF4F80810E94CC1CC9
:101D8000892B19F0C7010E94D80CBE016F5F7F4FED
:101D9000C6010E948E0F882319F0898190E002C04D
:101DA0008FEF9FEF0F90DF91CF910F91FF90EF900A
:101DB000DF90CF90089580E58093F70581E08093D0
:101DC000F80508950F93FC01718360835383428368
:101DD0002483058313861286118610861782168245
:101DE0000F910895FC0117821682118610861386C2
:101DF00012860895CF93DF93EC012E813F818A8173
:101E00009B812817390719F48D81882359F14C815A
:101E100050E028853985429FC001439F900D529F15
:101E2000900D112428813981820F931F0E94562D15
:101E3000888599852A813B810196B9010E94822972
:101E4000998788878E819F818217930729F48885D7
:101E500099859B878A8705C08E819F8101969F8384
:101E60008E8381E0DF91CF910895CF92DF92EF9240
:101E7000FF920F931F93CF93DF937C018B016A0135
:101E80004115510519F480E090E011C0C0E0D0E0A8
:101E9000B801C7010E94FA0E882341F02196F7018C
:101EA0008481080F111DCC15DD0591F7CE01DF915E
:101EB000CF911F910F91FF90EF90DF90CF900895F9
:101EC000CF93DF93EC01CB012E813F81232B11F1C6
:101ED0004C8150E02A853B85429FB001439F700DA5
:101EE000529F700D112428813981260F371FB901A7
:101EF0000E94562D8A859B8501966A817B810E946E
:101F000082299B878A878E819F8101979F838E83F9
:101F100081E001C080E0DF91CF910895FC01CB0109
:101F200026813781232BA1F0448150E0228533851F
:101F3000429FB001439F700D529F700D112420816C
:101F40003181260F371FB9010E94562D81E0089577
:101F500080E00895CF93CFB7F8948091FC0581116C
:101F600027C0E2EEF1E08491E3ECF1E09491E82FF8
:101F7000F0E0EE0FFF1FE45FFD4FA591B4918C914F
:101F8000892321F461E081E10E94961C61E081E1F6
:101F90000E945D1C8CB580618CBD8CB580648CBD4D
:101FA00061E08FE00E945D1C61E080E10E945D1CA9
:101FB0008091FC058F5F8093FC05CFBFCF91089582
:101FC000FC01658B089526EA31E0FC013183208312
:101FD000089526EA31E0FC0131832083089526EA42
:101FE00031E0FC01318320830C947E2526EA31E028
:101FF000FC01318320830C947E250F931F93CF9394
:10200000DF938C01EB0188E2FB0111928A95E9F7DD
:102010004BE050E065E072E0CE010E94762D1B8619
:1020200041E050E060E070E04C875D876E877F871D
:10203000F8010785108921893289088B198B2A8B31
:102040003B8B4C8B5D8B6E8B7F8B1CA21DA21EA2CB
:102050001FA2188E198E1A8E1B8E1C8E1D8E1E8E20
:102060001F8E18A219A21AA21BA2DF91CF911F9155
:102070000F9108950F931F93CF93DF938C01EB0182
:1020800088E2FB0111928A95E9F74BE050E065E0A8
:1020900072E0CE010E94762D1B8641E050E060E0A8
:1020A00070E04C875D876E877F87F8014189528990
:1020B00063897489488B598B6A8B7B8B42E050E033
:1020C00060E070E04C8B5D8B6E8B7F8B1CA21DA241
:1020D0001EA21FA2188E198E1A8E1B8E1C8E1D8E8C
:1020E0001E8E1F8E18A219A21AA21BA2DF91CF91D9
:1020F0001F910F910895DC01ED91FC910190F08109
:10210000E02D099420E132E0FC01318320834787F0
:10211000508B618B728B0895FC018EE192E091836C
:102120008083418B528B638B748B158A0895CF9378
:10213000DF9300D0CDB7DEB78DEF95E02A834983DA
:102140000E946B154981642F8DEF95E00E94121556
:102150002A81622F8DEF95E00E9412158DEF95E098
:102160000F900F90DF91CF910C948815CF93DF9350
:1021700000D0CDB7DEB78DEF95E02A8349830E946A
:102180006B154981642F8DEF95E00E9412152A810D
:10219000622F8DEF95E00E9412158DEF95E00F9064
:1021A0000F90DF91CF910C9488150F931F93CF93CD
:1021B000DF938C01EB01262F41E06EE10E94B61007
:1021C000F801D483C383C038D10509F45BC0DCF4C3
:1021D000C034D105A9F1C036D10509F442C0A09799
:1021E00009F08AC080E090E8A9E8B4E480930E0189
:1021F00090930F01A0931001B093110180E090E043
:10220000A5E7B4E471C0C03CD10509F44CC0C03EA0
:10221000D10509F459C0C03AD10509F06DC080E07C
:1022200090E0A8ECB3E480930E0190930F01A0938B
:102230001001B093110180E090E8A1EBB3E454C029
:1022400080E090ECA5E5B4E480930E0190930F013B
:10225000A0931001B093110180E090E0AEE3B4E4EC
:1022600043C080E090E8A7E2B4E480930E0190932D
:102270000F01A0931001B093110180E090E0A6E15E
:10228000B4E432C080E090E0A1EEB3E480930E01AC
:1022900090930F01A0931001B093110180E090E0A2
:1022A000A8ECB3E421C080E090E0A5EAB3E4809319
:1022B0000E0190930F01A0931001B093110180E0E3
:1022C00090E8A3E9B3E410C080E090E0A6E6B3E4B0
:1022D00080930E0190930F01A0931001B093110110
:1022E00080E090E0ADE4B3E480930A0190930B01A9
:1022F000A0930C01B0930D01DF91CF911F910F912D
:1023000008951F93CF93DF931F92CDB7DEB7162F9B
:102310008DEF95E049830E946B154981642F8DEF05
:1023200095E00E9412158DEF95E00E94881541E01E
:10233000612F8DEF95E00E9468158DEF95E00E946A
:10234000C214182F8DEF95E00E948815812F0F90F1
:10235000DF91CF911F910895CF93DF93EC018DEF23
:1023600095E00E94511527E540E269E1CE010E9407
:10237000971040E269E1CE010E94811191E087351A
:1023800009F090E0892FDF91CF9108951F93CF93AB
:10239000DF931F92CDB7DEB7162F8DEF95E04983FF
:1023A0000E946B154981642F8DEF95E00E941215F4
:1023B0008DEF95E00E94881541E0612F8DEF95E04B
:1023C0000E9468158DEF95E00E94C214182F8DEFC2
:1023D00095E00E948815812F0F90DF91CF911F917A
:1023E0000895CF93DF93EC018DEF95E00E94511596
:1023F00020E042E06EE1CE010E94B61040E06EE1C6
:10240000CE010E94C611803139F460E270E0CE0145
:102410000E94D51081E001C080E0DF91CF91089546
:102420006F927F928F929F92AF92BF92CF92DF92E4
:10243000EF92FF920F931F93CF93DF93EC0169E12B
:102440008DEF95E00E946B1568EA70E08DEF95E0E6
:102450000E947B108DEF95E00E94881546E069E1AF
:102460008DEF95E00E9468158DEF95E00E94BA14FB
:102470000697D4F38DEF95E00E94C214782E8DEF6D
:1024800095E00E94C214682E8DEF95E00E94C21460
:10249000982E8DEF95E00E94C214882E8DEF95E066
:1024A0000E94C214D82E8DEF95E00E94C214C82E4F
:1024B000B62CA12CA72884E0B594A7948A95E1F7BF
:1024C000B501882777FD8095982F0E9485276B831B
:1024D0007C838D839E83F82CE12CE92894E0F5948D
:1024E000E7949A95E1F7B701882777FD8095982FB3
:1024F0000E9485276F83788789879A871C2D00E043
:102500000D2924E0159507952A95E1F7B80188274C
:1025100077FD8095982F0E9485276B877C878D8714
:102520009E87DF91CF911F910F91FF90EF90DF90E9
:10253000CF90BF90AF909F908F907F906F900895B5
:102540000F931F93CF93DF938C01EB0184E2FB0188
:1025500011928A95E9F7C8010E94101284E290E076
:10256000A0E0B0E088839983AA83BB83F8018785C4
:102570009089A189B2898C839D83AE83BF8381E0DA
:1025800090E0A0E0B0E088879987AA87BB870E9487
:10259000271B688B798B8A8B9B8B2FE632E143E874
:1025A0005AE3F80163817481858196810E949E2897
:1025B0002AE038EE4CE151E40E949E286C8B7D8B22
:1025C0008E8B9F8B2FE632E143E85AE3F801678157
:1025D0007085818592850E949E282AE038EE4CE124
:1025E00051E40E949E28688F798F8A8F9B8F2FE6F7
:1025F00032E143E85AE3F801638574858585968561
:102600000E949E282AE038EE4CE151E40E949E2868
:102610006C8F7D8F8E8F9F8F81E0DF91CF911F9187
:102620000F9108956F927F928F929F92AF92BF9277
:10263000CF92DF92EF92FF920F931F93CF93DF938E
:10264000EC016EE18DEF95E00E946B1563E070E0A8
:102650008DEF95E00E947B108DEF95E00E9488152C
:1026600046E06EE18DEF95E00E9468158DEF95E0F4
:102670000E94BA140697D4F38DEF95E00E94C2141D
:10268000682E8DEF95E00E94C214782E8DEF95E0B4
:102690000E94C214C82E8DEF95E00E94C214D82E5D
:1026A0008DEF95E00E94C214882E8DEF95E00E9478
:1026B000C214982EB62CA12CA728B501882777FD27
:1026C0008095982F0E9485276D837E838F839887BE
:1026D000F82CE12CE928B701882777FD8095982F01
:1026E0000E94852769877A878B879C871C2D00E04D
:1026F0000D29B801882777FD8095982F0E9485279E
:102700006D877E878F87988BDF91CF911F910F9177
:10271000FF90EF90DF90CF90BF90AF909F908F9001
:102720007F906F9008952F923F924F925F926F9299
:102730007F928F929F92AF92BF92CF92DF92EF9251
:10274000FF920F931F93CF93DF93EC018B0184E2F1
:10275000FB0111928A95E9F749E06EE1CE010E94F2
:10276000C61180FFF3C0CE010E9412138D89882309
:1027700009F483C04D805E806F80788489849A8458
:10278000AB84BC84CD84DE84EF84F8882224239437
:1027900020E030E04FEF54ECC301B2010E94E32689
:1027A00018160CF4212C3324339420E030E04FEF42
:1027B00054E4C301B2010E94932887FD312C3228D2
:1027C0006624639420E030E04FEF54E4C501B40187
:1027D0000E94932887FD612C63287724739420E05E
:1027E00030E04FEF54ECC501B4010E94E326181607
:1027F0000CF4712C7628BB24B39420E030E04FEF2A
:1028000054E4C701B6010E94932887FDB12C7B28B0
:1028100051F420E030E04FEF54ECC701B6010E94C4
:10282000E326181654F18B819C8180369105E1F0E6
:102830004CF480329105D9F080349105F1F460E6D2
:1028400070E017C0803A910561F0803C910531F04D
:102850008038910591F460EA70E00BC060EE70E0A2
:1028600008C060EC70E005C060E870E002C060E4A1
:1028700070E0CE010E94D5106FCF84E290E0A0E01E
:10288000B0E0F80180839183A283B38389899A8918
:10289000AB89BC8984839583A683B78382E090E06B
:1028A000A0E0B0E080879187A287B3870E94271BB2
:1028B000F801608B718B828B938BC0900E01D0904E
:1028C0000F01E0901001F0901101A70196016D81B8
:1028D0007E818F8198850E94EA2620E030E048ECD6
:1028E00052E40E949E28F801648B758B868B978B2F
:1028F000A701960169857A858B859C850E94EA26C9
:1029000020E030E048EC52E40E949E28F801608FFD
:10291000718F828F938F20910A0130910B0140912A
:102920000C0150910D016D857E858F8598890E94DF
:10293000EA2620E030E048EC52E40E949E28F801AC
:10294000648F758F868F978F81E001C080E0DF9163
:10295000CF911F910F91FF90EF90DF90CF90BF909C
:10296000AF909F908F907F906F905F904F903F902F
:102970002F90089580912D0690E020912E06821BC5
:102980009109089520912E0680912D06281750F464
:10299000E22FF0E0E15DF94F808190E02F5F20931E
:1029A0002E0608958FEF9FEF0895E0912E068091F7
:1029B0002D06E81730F4F0E0E15DF94F808190E0FA
:1029C00008958FEF9FEF08950895CF92DF92EF92D1
:1029D000FF920F931F93CF93DF937C01CB018A016A
:1029E00020910906222389F0EB016B01C40ED51E4C
:1029F000CC15DD0569F06991D701ED91FC9101904D
:102A0000F081E02DC7010995F3CF642F0E94441691
:102A1000C801DF91CF911F910F91FF90EF90DF9050
:102A2000CF900895CF93DF931F92CDB7DEB7698320
:102A3000209109062223D1F020910A06203240F08D
:102A400021E030E0FC013383228380E090E015C078
:102A500080910B06E82FF0E0E45FF94F99819083B5
:102A60008F5F80930B0680930A0605C061E0CE015C
:102A700001960E94441681E090E00F90DF91CF9183
:102A80000895FC011382128248EE53E060E070E08A
:102A900044835583668377838CE292E091838083BD
:102AA000089510922E0610922D0610920B06109289
:102AB0000A060C948F15862F413208F040E26FE22F
:102AC00076E00E94AD1510922E0680932D06089593
:102AD00021E00C945B1581E08093090660932C063D
:102AE00010920B0610920A0608950F93062F21E00C
:102AF00040910A066CE076E080912C060E94F11568
:102B000010920B0610920A06109209060F91089572
:102B100061E00C9475158DEF95E00C9441151092C1
:102B2000BC0681E08093BA061092B90661E082E0AB
:102B30000E94961C61E083E00E94961CE9EBF0E0A5
:102B400080818E7F808380818D7F808380E28093EF
:102B5000B80085E48093BC000895413208F03FC07E
:102B60009091BC069111FCCF91E09093BC0620930C
:102B7000BA062FEF20934F0610929406240F20934D
:102B800093069093BB069091BB06880F892B809388
:102B9000BB068091B906813041F41092B90680914C
:102BA000BB068093BB0085EC01C085EE8093BC0022
:102BB0008091BC068130E1F380919406841710F473
:102BC0004091940625E936E0FB01D9018A2F821B4A
:102BD000841718F48D918193F9CF842F089580E0A4
:102BE00008950F93413208F046C09091BC069111B0
:102BF000FCCF92E09093BC060093BA069FEF9093AF
:102C00004F061092940640939306FB0165E976E027
:102C1000DB019A2F961B941718F491919D93F9CF8D
:102C20001092BB069091BB06880F892B8093BB0640
:102C30008091B906813041F41092B9068091BB06AB
:102C40008093BB0085EC01C085EE8093BC002223FD
:102C500021F08091BC068230E1F380914F068F3FD6
:102C600061F080914F06803251F080914F068033A1
:102C700041F483E007C081E005C080E003C082E04A
:102C800001C084E00F910895613298F42091BC0650
:102C9000243089F460937106FC0183E796E0DC013F
:102CA0002A2F281B261718F421912D93F9CF80E0A5
:102CB000089581E0089582E0089585ED8093BC0039
:102CC0008091BC0084FDFCCF1092BC06089585EC79
:102CD0008093BC001092BC0608951F920F920FB60D
:102CE0000F9211242F933F934F935F936F937F9392
:102CF0008F939F93AF93BF93EF93FF938091B9000E
:102D0000887F803609F49CC068F5883209F45BC07E
:102D100090F4803109F454C038F4882309F4F5C0E4
:102D2000883009F44DC0F5C0883109F44CC08032B8
:102D300009F45DC0EEC0803409F468C048F4803303
:102D400009F455C0883309F0E4C080934F06A8C049
:102D5000803509F44FC0883509F45DC0883409F026
:102D6000D8C0D5C0883909F4C6C0A8F4883709F49A
:102D700067C038F4883609F463C0803709F460C04E
:102D8000C8C0883809F4B7C0803909F45FC08038FA
:102D900009F0BFC05BC0803B09F485C038F4803ABD
:102DA00009F466C0883A09F47EC0B3C0803C09F4D7
:102DB000A6C0883C09F4A3C0883B09F489C0A9C017
:102DC0008091BB0610C0909194068091930698174D
:102DD00070F5E091940681E08E0F80939406F0E008
:102DE000EB56F94F80818093BB0085EC85C08093C2
:102DF0004F068DC0E091940681E08E0F809394067B
:102E00008091BB00F0E0EB56F94F808390919406DF
:102E1000809193066DC0E091940681E08E0F8093BF
:102E200094068091BB00F0E0EB56F94F80838091CF
:102E3000BA0681116CC081E08093B90684EA60C053
:102E400083E08093BC0610925006CFCF809150064D
:102E5000803208F050C0E091500681E08E0F8093E0
:102E600050068091BB00F0E0EF5AF94F8083BDCF50
:102E700080915006803230F4E0915006F0E0EF5A35
:102E8000F94F10820E945D166091500670E0E0914B
:102E9000B506F091B60681E596E0099510925006C8
:102EA0000E94671636C084E08093BC0610927206BA
:102EB00010927106E091B706F091B80609958091DD
:102EC0007106811105C081E080937106109273062E
:102ED000E091720681E08E0F80937206F0E0ED586B
:102EE000F94F80818093BB009091720680917106AA
:102EF000981708F47ACF85E88093BC000AC085EC67
:102F00008093BC001092BC0604C010924F060E9431
:102F10005D16FF91EF91BF91AF919F918F917F913E
:102F20006F915F914F913F912F910F900FBE0F9036
:102F30001F90189508954F925F926F927F928F9293
:102F40009F92AF92BF92CF92DF92EF92FF920F9338
:102F50001F93CF93DF93EB018A01209709F47EC082
:102F60004115510509F47AC04C8C5D8C6E8C7F8CB8
:102F700020E030E0A901C301B2010E94932887FD3F
:102F800007C0812C912C90E8A92E9FE3B92E06C092
:102F9000812C912C80E8A82E8FEBB82ECC88DD8870
:102FA000EE88FF88A3019201C301B2010E949E280E
:102FB0002B013C01A7019601C701B6010E949E2882
:102FC000A30192010E941D260E940B299B01AC01C6
:102FD000C88CD98CEA8CFB8CC701B6010E94902664
:102FE00020E030E044E353E40E949E282BED3FE0D4
:102FF00049E450E40E94EA26F801608371838283E9
:103000009383A7019601C701B6010E949E28A301E0
:1030100092010E941D260E940B299B01AC01C50153
:10302000B4010E949E289B01AC016C897D898E8928
:103030009F890E94902620E030E044E353E40E9400
:103040009E282BED3FE049E450E40E94EA26F80177
:10305000648375838683978381E001C080E0DF917C
:10306000CF911F910F91FF90EF90DF90CF90BF9085
:10307000AF909F908F907F906F905F904F9008954A
:103080002F923F924F925F926F927F928F929F9278
:10309000AF92BF92CF92DF92EF92FF920F931F9366
:1030A000CF93DF93CDB7DEB764970FB6F894DEBF4A
:1030B0000FBECDBFF9014115510509F41EC130976E
:1030C00009F41BC162307105F9F063307105A1F19B
:1030D0006130710509F011C1C08CD18CE28CF38C88
:1030E000848C958CA68CB78C648975898689978920
:1030F0008A01085E1F4F1A012CE1220E311CDA01F1
:103100005496BE83AD8330C0C48CD58CE68CF78CCE
:1031100084889588A688B788608D718D828D938DFF
:103120008A01045E1F4F1A01B4E12B0E311CFA0113
:103130007896FE83ED8318C0C488D588E688F78822
:10314000808C918CA28CB38C648D758D868D978DBF
:103150008A010C5E1F4F1A01F8E12F0E311C9A01F3
:10316000245E3F4F3E832D839B01AC010E949E282D
:1031700069837A838B839C83A7019601C701B6017B
:103180000E949E2829813A814B815C810E941D26E4
:103190000E940B299B01AC01C501B4010E9490263D
:1031A0002B013C01A5019401C501B4010E949E2898
:1031B00029813A814B815C810E941D260E940B2946
:1031C0009B01AC01C701B6010E9490266B017C01F6
:1031D000C301B2010E94E72669877A878B879C87A3
:1031E000C301B2010E94012969837A838B839C8386
:1031F000F7FAF094F7F8F094C701B6010E94E726B9
:103200002B013C01C701B6010E9401296B017C0121
:10321000D8018D909D90AD90BC90D1018D919D91E4
:103220000D90BC91A02D8D879E87AF87B88BAD8107
:10323000BE818D919D910D90BC91A02D8D839E831B
:10324000AF83B887A3019201C501B4010E949E28F3
:10325000698B7A8B8B8B9C8BA70196016D817E810C
:103260008F8198850E949E289B01AC0169897A898B
:103270008B899C890E941D26F8016083718382835B
:10328000938329813A814B815C81C501B4010E94FD
:103290009E28A70196010E949E286B017C0129852A
:1032A0003A854B855C856D857E858F8598890E94E2
:1032B0009E289B01AC01C701B6010E941D266B012F
:1032C0007C0129813A814B815C816D817E818F8176
:1032D00098850E949E28A30192010E949E289B012E
:1032E000AC01C701B6010E941C26D1016D937D93EC
:1032F0008D939C93139781E001C080E064960FB694
:10330000F894DEBF0FBECDBFDF91CF911F910F911B
:10331000FF90EF90DF90CF90BF90AF909F908F90F5
:103320007F906F905F904F903F902F900895CF9235
:10333000DF92EF92FF92CF93DF93FA01E90130978A
:1033400009F453C0209709F450C06230710581F030
:1033500063307105B1F06130710509F046C0208D10
:10336000318D428D538D648D758D868D978D11C0F5
:10337000248D358D468D578D648975898689978909
:1033800008C02489358946895789608D718D828D61
:10339000938D0E94902620E030E044E353E40E94A5
:1033A0009E282BED3FE049E450E40E94EA2668871E
:1033B00079878A879B87C884D984EA84FB8420E044
:1033C00030E0A901C701B6010E94E32687FF0FC0C4
:1033D00020E030E044EB53E4C701B6010E941D2613
:1033E000688779878A879B8702C080E001C081E077
:1033F000DF91CF91FF90EF90DF90CF900895AF9243
:10340000BF92CF92DF92EF92FF920F931F93CF93D1
:10341000DF937B0182E0E80EF11C81E090E0E0E0C8
:10342000F0E0A0E0B0E05D01AA0CBB1C8F01000F32
:10343000111F84179507D4F4E701C990D9907E0134
:10344000E501C60FD71F0990D881C02DCC16DD0627
:103450000CF4DC01EB01C00FD11F0990D881C02D05
:10346000CC15DD050CF4FC010196DDCF060F171F0E
:10347000E80188819981E501C60FD71F44275527A8
:10348000421B530B68817981461757071CF482173A
:1034900093073CF0EA17FB0734F0AE17BF0734F090
:1034A00007C080E001C081E090E002C08FEF9FEF95
:1034B000DF91CF911F910F91FF90EF90DF90CF9010
:1034C000BF90AF9008951F920F920FB60F921124E4
:1034D0002F933F934F935F936F937F938F939F931C
:1034E000AF93BF93EF93FF93E091FF06F091000736
:1034F000309709F451C0868DA685B785958581FFE3
:1035000004C08C91892329F447C08C91892309F048
:1035100043C0A389B4899C918589809589238C9324
:10352000868997890197F1F7208D318DA685B7851A
:10353000758558E040E0C9010197F1F7842F90E0CC
:1035400095958795482F6C91672309F040685150F5
:1035500091F7868D81FD40958091BE0690E00196A1
:103560008F7399272091BD06281749F0A091BE06B8
:10357000B0E0A154B94F4C938093BE0603C0868D32
:103580008160868F828D938D0197F1F7A389B4892D
:103590008C919589892B8C93FF91EF91BF91AF917D
:1035A0009F918F917F916F915F914F913F912F915B
:1035B0000F900FBE0F901F9018951F920F920FB68D
:1035C0000F9211242F933F938F939F93AF93BF93A9
:1035D0008091020790910307A0910407B09105071D
:1035E0003091010726E0230F2D3720F40296A11D0C
:1035F000B11D05C029E8230F0396A11DB11D20931D
:1036000001078093020790930307A0930407B093E8
:1036100005078091060790910707A0910807B091D0
:1036200009070196A11DB11D809306079093070716
:10363000A0930807B0930907BF91AF919F918F9115
:103640003F912F910F900FBE0F901F9018952FB79D
:10365000F89460910207709103078091040790919C
:1036600005072FBF08953FB7F89480910607909102
:103670000707A0910807B091090726B5A89B05C0C8
:103680002F3F19F00196A11DB11D3FBF6627782F6E
:10369000892F9A2F620F711D811D911D43E0660FC6
:1036A000771F881F991F4A95D1F708958F929F928F
:1036B000AF92BF92CF92DF92EF92FF926B017C01AB
:1036C0000E94331B4B015C01C114D104E104F104DD
:1036D000F1F00E9480250E94331B681979098A093C
:1036E0009B09683E73408105910570F321E0C21A81
:1036F000D108E108F10888EE880E83E0981EA11C2D
:10370000B11CC114D104E104F10429F7DDCFFF900D
:10371000EF90DF90CF90BF90AF909F908F900895E3
:103720008330910528F0880F991F04970197F1F7CE
:103730000895789484B5826084BD84B5816084BD29
:1037400085B5826085BD85B5816085BDEEE6F0E01A
:10375000808181608083E1E8F0E010828081826076
:103760008083808181608083E0E8F0E080818160F7
:103770008083E1E9F0E080818260808380818160E4
:103780008083E0E9F0E0808181608083E1ECF0E01B
:103790008081846080838081826080838081816079
:1037A0008083E3ECF0E0808181608083E0ECF0E0F6
:1037B000808182608083E2ECF0E0808181608083A0
:1037C000EAE7F0E08081846080838081826080838A
:1037D00080818E7F8083808180688083089582319C
:1037E00008F08251E82FF0E0E957FE4FE491809114
:1037F0007B00E3FB222720F930E095E0220F331F06
:103800009A95E1F78F7D822B80937B00E770809102
:10381000120120E4829FC0011124E82BE0937C0078
:1038200080917A00806480937A0080917A0086FD8E
:10383000FCCF809178002091790090E0922B089540
:1038400090E0FC013197EF30F105B0F5EA5AFF4FF7
:103850000C94B829809180008F7703C080918000FC
:103860008F7D80938000089580918000877FF9CFBD
:1038700084B58F7702C084B58F7D84BD0895809113
:1038800090008F7707C0809190008F7D03C080915A
:103890009000877F8093900008958091C0008F777B
:1038A00003C08091C0008F7D8093C00008958091F7
:1038B000C200877F8093C2000895CF93DF9390E08A
:1038C000FC01EE54FE4F2491FC01EF52FE4F849117
:1038D000882349F190E0880F991FFC01E45FFD4FB8
:1038E000A591B49182509E4FFC01C591D4919FB790
:1038F000611108C0F8948C91209582238C93888163
:1039000082230AC0623051F4F8948C91322F3095A2
:1039100083238C938881822B888304C0F8948C91B4
:10392000822B8C939FBFDF91CF9108950F931F93AC
:10393000CF93DF931F92CDB7DEB7282F30E0F90188
:10394000ED56FE4F8491F901EE54FE4F1491F901AA
:10395000EF52FE4F04910023C9F0882321F06983C0
:103960000E94201C6981E02FF0E0EE0FFF1FE25063
:10397000FE4FA591B4919FB7F8948C91611103C04B
:103980001095812301C0812B8C939FBF0F90DF91F5
:10399000CF911F910F910895CF93DF93282F30E09F
:1039A000F901ED56FE4F8491F901EE54FE4FD4918A
:1039B000F901EF52FE4FC491CC2391F081110E9486
:1039C000201CEC2FF0E0EE0FFF1FE051FE4FA59101
:1039D000B4912C912D2381E090E021F480E002C08D
:1039E00080E090E0DF91CF910895CF93DF931F9215
:1039F000CDB7DEB76983DC01ED91FC910280F381E4
:103A0000E02D41E050E0BE016F5F7F4F09950F90C0
:103A1000DF91CF910895CF93DF93EC018C859D8545
:103A200097FF05C082E00E9487209D878C878C8548
:103A30009D85DF91CF91089583E00C941D23FC01B7
:103A40008485958597FD06C082E00E94302090E035
:103A50000196089582E00E94302090E00895FC01D4
:103A60008485958597FD05C02FEF3FEF3587248727
:103A7000089582E00C948720CF93DF93EC0180912E
:103A80001E01882331F083E00E94B8201816190621
:103A900034F081E090E09B838A8380E090E0DF91C6
:103AA000CF910895FC0120812E5F208342E450E0F5
:103AB0006AE172E080E80C945221FC01218180814E
:103AC000813A59F4213209F04BC047E050E067E1F8
:103AD00071E080E00E9452215EC0813209F040C056
:103AE000233289F4838190E0982F88273281832BB9
:103AF000A0E0B0E08093130190931401A09315010E
:103B0000B09316010FC0203239F467E070E087E10E
:103B100091E00E94832109C0223221F482818093A6
:103B20001E0103C02D7F2032B1F580915A0781110B
:103B300003C0E0E0F8E002C0EEEFFAE08091170188
:103B400090911801A0911901B0911A01803B944005
:103B5000A105B10511F580911E0180FF03C01DC0B4
:103B600080E00895EE3F2AE0F20731F080819181F4
:103B70009093FF0A8093FE0A87E797E791838083FB
:103B80002BE088E190E00FB6F894A8958093600050
:103B90000FBE2093600081E0089588E10FB6F8948D
:103BA00080936000109260000FBEA895EE3F8AE0FF
:103BB000F80739F08091FE0A9091FF0A9183808383
:103BC000EACF1092FF0A1092FE0AE5CF2FEF3FEFE7
:103BD000FC0135872487089510920D0710920C0779
:103BE00088EE93E0A0E0B0E080930E0790930F077B
:103BF000A0931007B09311078CE392E090930B070A
:103C000080930A078FEF9FEF909317078093160713
:103C1000089580E090E0892B49F080E090E0892BC6
:103C200029F00E94000081110C9400000895CF92A9
:103C3000DF92EF92FF920F931F93CF93DF937C015C
:103C40006A01EB0100E010E00C151D0571F06991AF
:103C5000D701ED91FC910190F081E02DC70109950C
:103C6000892B19F00F5F1F4FEFCFC801DF91CF9164
:103C70001F910F91FF90EF90DF90CF900895611505
:103C8000710581F0DB010D900020E9F7AD01415095
:103C90005109461B570BDC01ED91FC910280F38129
:103CA000E02D099480E090E00895EF92FF920F9349
:103CB0001F93CF93DF938C017B01C0E0D0E0F7012D
:103CC000EC0FFD1F6491662359F0F801A081B181CA
:103CD000ED91FC91C8010995892B11F02196EFCF48
:103CE000CE01DF91CF911F910F91FF90EF9008953A
:103CF000DC01ED91FC91DB0114964D915C911597DF
:103D00006D917C910280F381E02D09940C943F1E0B
:103D1000DC01ED91FC910190F081E02D09946CEEB5
:103D200071E00C943F1E0F931F93CF93DF93EC0130
:103D30000E94551E8C01CE010E948F1E800F911F84
:103D4000DF91CF911F910F9108950F931F93CF9300
:103D5000DF93EC010E94781E8C01CE010E948F1E21
:103D6000800F911FDF91CF911F910F9108950F93B5
:103D70001F93CF93DF93EC010E943F1E8C01CE0175
:103D80000E948F1E800F911FDF91CF911F910F9185
:103D900008958F929F92AF92BF92DF92EF92FF921F
:103DA0000F931F93CF93DF93CDB7DEB7A1970FB6D5
:103DB000F894DEBF0FBECDBF7C01F42FD52ECB0112
:103DC00019A2223008F42AE08E010F5D1F4F822EC7
:103DD000912CA12CB12C6F2F7D2DA50194010E9457
:103DE0009629F22FD32ECA01015011096A3014F41A
:103DF000E0E301C0E7E3E60FD801EC93232B242B8B
:103E0000252B49F7B801C7010E943F1EA1960FB6A6
:103E1000F894DEBF0FBECDBFDF91CF911F910F9100
:103E2000FF90EF90DF90BF90AF909F908F9008959C
:103E3000CF92DF92EF92FF920F931F93CF93DF9376
:103E4000EC016A017B012115310579F4E881F981E2
:103E50000190F081E02D642FDF91CF911F910F91A0
:103E6000FF90EF90DF90CF9009942A303105E9F46C
:103E700077FF1AC06DE20E94881E8C0144275527E7
:103E8000BA014C195D096E097F092AE0CE010E9432
:103E9000C91E800F911FDF91CF911F910F91FF904D
:103EA000EF90DF90CF9008952AE0B701A601CE01F0
:103EB000DF91CF911F910F91FF90EF90DF90CF9006
:103EC0000C94C91E9A01AB01662757FD6095762FA9
:103ED0000C94181F2115310541F4DC01ED91FC9182
:103EE0000190F081E02D642F09940C94C91E9A0171
:103EF000462F50E060E070E00C946A1F9A01AB011D
:103F000060E070E00C946A1F40915F075091600779
:103F100020915D0730915E0742175307B4F49091EA
:103F2000E8009570E1F39091E80092FD19C080934C
:103F3000F10080915F079091600701968F73992738
:103F4000892B19F48EEF8093E80080915F079091A0
:103F5000600701969093600780935F0781E0089562
:103F600080E00895CF92DF92EF92FF920F931F931C
:103F7000CF93DF931F92CDB7DEB7082F162FF42E05
:103F8000862F880F8E5F99830E94841F83E00E9492
:103F9000841FE02EC02E9981D92E8C2D8E19811769
:103FA00098F4F601F7FE02C0849101C080810E945E
:103FB000841F082F80E00E94841F8023FFEFCF1A08
:103FC000DF0A8111EACF01C081E00F90DF91CF912C
:103FD0001F910F91FF90EF90DF90CF900895809107
:103FE000D70081608093D70080EA8093D80089B59C
:103FF0008F7E89BD89B5826089BD09B400FEFDCF81
:1040000061E070E080E090E00E94561B8091D80053
:104010008F7C80618093D8008091E000807F8093C6
:10402000E0000895CF93DF931F92CDB7DEB71982DA
:10403000CE0101960E94521D0E940826BE016F5FAC
:104040007F4F0E94812589810F90DF91CF91089544
:104050002FB7FC012083F89467706093E9000895FE
:10406000CF93DF931F92CDB7DEB7682FCE010196B5
:104070000E9428208091F20099819FBF0F90DF91CC
:10408000CF910895FF920F931F93CF93DF9300D0AA
:10409000CDB7DEB7F62E8A0190916307992311F010
:1040A00057FF03C08FEF9FEF2AC0682FCE01019604
:1040B0007A830E9428208091F20090E0A8017A8102
:1040C000801791070CF4AC01EF2DF72FF40E84E666
:1040D000FE1631F0809364079091F1009193F8CF30
:1040E0004115510521F08091F200882321F089814A
:1040F0008FBFCA0104C08BE68093E800F8CF0F9011
:104100000F90DF91CF911F910F91FF900895CF9362
:10411000DF931F92CDB7DEB741E050E0BE016F5F85
:104120007F4F0E944220019719F4898190E002C0DC
:104130008FEF9FEF0F90DF91CF910895CF93DF9393
:104140001F92CDB7DEB7682FCE0101960E942820BE
:104150009091E800892F807295FF04C09091F20041
:1041600080E4891B99819FBF0F90DF91CF910895C3
:104170006F927F928F929F92AF92BF92CF92DF9277
:10418000EF92FF920F931F93CF93DF931F92CDB7C0
:10419000DEB7782E7B01C42EB52E8091630788236D
:1041A00069F0042F152F8AEFD82E872D8072982E54
:1041B0009AE3A92E872D8074882E11C08FEF9FEF70
:1041C00056C0872D0E949E20682E81110CC0DA9463
:1041D000A9F361E070E080E090E00E94561B0115B9
:1041E000110579F73BC0282F30E0021713070CF4B4
:1041F000602E672DCE0101960E9428208091E80054
:1042000085FF29C0262D30E0021B130B992039F0C1
:104210006A948FEF6816B1F01092F100F9CFF701B0
:10422000862D77FE07C0815058F094919093F1004D
:104230003196F9CF815020F091919093F100FACF0F
:10424000E20EF31E8091E80085FF0EC001151105F6
:1042500011F4811009C089818FBFC1CF84E680939A
:1042600065078C2D9B2D03C0A092E800F4CF0F9022
:10427000DF91CF911F910F91FF90EF90DF90CF9042
:10428000BF90AF909F908F907F906F900895109205
:10429000E9001092600710925F0790935E07809389
:1042A0005D070895CF92DF92FF920F931F93CF93F4
:1042B000DF9300D0CDB7DEB7F82E8A016B01011570
:1042C0001105B1F0F601F7FE02C0849101C08081B2
:1042D00049835A830E94841F01501109FFEFCF1AAE
:1042E000DF0A49815A818111EACF8FEF9FEF01C028
:1042F000CA010F900F90DF91CF911F910F91FF9006
:10430000DF90CF900895CF93DF939B01A4E6BBEF9E
:1043100021153105F9F0A9012134310514F040E4EB
:1043200050E0E091E800E2FFFCCFFB01E21BF30B61
:10433000E80FF91FCE2FC40FCE1729F0D091F1004E
:10434000D0833196F9CFA0936407B093E800241B83
:10435000350BDECFCB01DF91CF9108951F920F92E5
:104360000FB60F921124DF92EF92FF920F931F93DB
:104370002F933F934F935F936F937F938F939F936D
:10438000AF93BF93EF93FF93CF93DF93CDB7DEB798
:104390006C97DEBFCDBF1092E9008091E80083FFEB
:1043A0002EC1FE0175968F01AE01435E5F4F9F01E6
:1043B0002F5F3F4F8091F10080832417350711F064
:1043C000F901F5CF84E68093640782EF8093E800DB
:1043D0005D8957FF05C08091E80080FFFCCF03C0D6
:1043E0008EEF8093E800852F807609F0EFC04E892C
:1043F0008F89D88C41110CC0503829F48091620704
:104400008093F10002C01092F1001092F100F0C010
:10441000282F30E03D29413051F45111E9C02130BD
:10442000310509F0E5C0809162078D7F0BC04330F4
:1044300061F45111DDC02130310509F0D9C08091FE
:104440006207826080936207D3C0453041F4909147
:10445000E80090FFFCCF80688093E300C9C046303D
:1044600009F08BC0EB8CFC8C22E0D2122CC080E0D7
:1044700090E00E9447210E94122099E08E010F5F78
:104480001F4FF801292F11922A95E9F79983DA82B3
:1044900091E09E8390EA98879AEF998720915F0731
:1044A00030916007275F3F4F3C832B838D83C7018B
:1044B0000E94472149E050E0B80180E00E9452216B
:1044C0000E94122095C0C7010E9447210E94082621
:1044D000B8010E94AA25009719F00CF089C08CC081
:1044E00081E0D8120EC08B8D9C8D089719F481E065
:1044F00080935C0780915C0781112FC06EE672E0AB
:1045000031C0E3E0DE1278C08F89882349F1823020
:1045100029F440E86CE089E892E01CC0813029F47D
:1045200040E868E080E892E015C0833009F064C09C
:104530000E9408268E010F5F1F4FB8010E94C925F7
:10454000F80101900020E9F73197E01BF10B40E002
:104550006E2FC8010E94B21F49C06CE572E002C014
:1045600066E972E06115710509F446C0FB014491EA
:1045700050E080E80E9452213BC04730E9F14830CA
:1045800021F481E08093F10033C0493089F5537004
:1045900099F5E0E2F1E081E021E036E390819923B2
:1045A00061F08093E9002093EB0091919093EC00EF
:1045B0003093ED008F5F873089F78EE78093EA00B4
:1045C0001092EA008F898093630712C08B8D9C8DB7
:1045D0000E944721898D811104C0C8010E945D1D80
:1045E00005C00E940826B8010E94E825882321F012
:1045F0008EEF8093E80003C081E28093EB006C961D
:104600000FB6F894DEBF0FBECDBFDF91CF91FF9103
:10461000EF91BF91AF919F918F917F916F915F913A
:104620004F913F912F911F910F91FF90EF90DF904D
:104630000F900FBE0F901F9018958093E900809106
:10464000F200882319F08AE38093E80008951F920E
:104650000F920FB60F9211242F933F934F935F93B6
:104660006F937F938F939F93AF93BF93CF93EF936A
:10467000FF93C091E1008091E100837F8093E1008E
:104680008093E100C3FF0FC01092E90081E08093A6
:10469000EB001092EC0082E38093ED001092630730
:1046A00088E08093F000C2FF15C083E00E941D23C4
:1046B00080916507882329F0809165078150809358
:1046C000650780916407882329F0809164078150F1
:1046D00080936407C4FF10C08091E2008E7E8160E9
:1046E0008093E2008091E1008F7E8093E1008091D1
:1046F00061078E7E806111C0C0FF11C08091E20011
:104700008E7E80618093E2008091E1008E7E8093B6
:10471000E100809161078E7E816080936107FF9147
:10472000EF91CF91BF91AF919F918F917F916F91B9
:104730005F914F913F912F910F900FBE0F901F905F
:1047400018951092630710926207109261070E94F9
:10475000EF1F8091E1008E7E8093E1008DE08093D9
:10476000E200EEEFFFE7859194918B3F9C4D19F4A9
:1047700081E080935A07089570E09B01382BC901AE
:104780000895FC01808191810C94912ACF93DF934D
:10479000EC0188819981009711F00E94912A198279
:1047A00018821D821C821B821A82DF91CF9108958C
:1047B0000F931F93CF93DF93EC018B016F5F7F4FBC
:1047C000888199810E94202B009731F099838883FA
:1047D0001B830A8381E001C080E0DF91CF911F91AC
:1047E0000F910895CF93DF93EC0188819981892BF4
:1047F00029F08A819B818617970760F4CE010E9479
:10480000D823882341F08C819D81892B19F4E8817C
:10481000F981108281E0DF91CF910895EF92FF92AC
:104820000F931F93CF93DF93EC017B018A01BA01B1
:104830000E94F223811104C0CE010E94C62307C04A
:104840001D830C83B701888199810E946F2DCE0151
:10485000DF91CF911F910F91FF90EF900895FC0190
:1048600011821082138212821582148261157105E1
:1048700059F0FB0101900020E9F7AF0141505109C7
:10488000461B570B0C940E240895CF93DF93EC0135
:10489000FB018617970761F06081718161157105D1
:1048A00029F0448155810E940E2402C00E94C62333
:1048B000CE01DF91CF910895FC0111821082138205
:1048C0001282158214820C944524CF93DF93EC015D
:1048D0006115710561F0FB0101900020E9F7AF015E
:1048E00041505109461B570B0E940E2402C00E94E2
:1048F000C623CE01DF91CF9108950F931F93CF93DD
:10490000DF93CDB7DEB762970FB6F894DEBF0FBE68
:10491000CDBF8C01CB01F80111821082138212826B
:104920001582148250E0BE016F5F7F4F0E94852D7B
:10493000BE016F5F7F4FC8010E94652462960FB66B
:10494000F894DEBF0FBECDBFDF91CF911F910F91C5
:104950000895EF92FF920F931F93CF93DF93CDB7FC
:10496000DEB7A1970FB6F894DEBF0FBECDBF7C01B6
:10497000CB01BA01F70111821082138212821582D3
:10498000148242E0420F8E010F5F1F4F0E94D82910
:10499000BC01C7010E946524A1960FB6F894DEBF42
:1049A0000FBECDBFDF91CF911F910F91FF90EF9080
:1049B0000895EF92FF920F931F93CF93DF93EC0133
:1049C0007B010C811D816115710511F480E016C019
:1049D0004115510591F0040F151FB8010E94F223F3
:1049E0008823A1F3288139818C819D81B701820FB1
:1049F000931F0E946F2D1D830C8381E0DF91CF9167
:104A00001F910F91FF90EF900895FB014481558114
:104A1000608171810C94D9246115710559F0FB01F5
:104A200001900020E9F7AF0141505109461B570B97
:104A30000C94D92480E00895CF93DF93EC01FB011F
:104A400044815581608171810E94D924811103C004
:104A5000CE010E94C623CE01DF91CF910895CF935E
:104A6000DF93EC016115710569F0FB0101900020F5
:104A7000E9F7AF0141505109461B570B0E94D92459
:104A8000811103C0CE010E94C623CE01DF91CF91D8
:104A90000895FC0124813581232B31F421E0611537
:104AA0007105A1F0FB0108C0FC01808191816115B5
:104AB000710531F421E0FC018081882339F005C0C3
:104AC0000E94662D21E0892B09F020E0822F0895B5
:104AD0000E941E2D08950E94991B0E946A258BE555
:104AE00097E00E94A1230E945902C9E0DEE10E94E2
:104AF0003E042097E1F30E94091EF9CF0C94912AFD
:104B00000895EF92FF920F931F93CF93DF937B0152
:104B1000FC01C281D38100E010E0209781F0E881A0
:104B2000F9810280F381E02DB701CE01099597FD4F
:104B300008C0080F191F0884D985C02DEECFC80101
:104B400002C08FEF9FEFDF91CF911F910F91FF90E8
:104B5000EF9008950F931F93CF93DF938B01FC0188
:104B6000C281D381209771F0E881F9810480F581B9
:104B7000E02DB801CE010995009731F40884D9855C
:104B8000C02DF0CF80E090E0DF91CF911F910F9189
:104B900008950F931F93CF93DF938B01FC01C28184
:104BA000D381209771F0E881F9810680F781E02DAB
:104BB000B801CE010995080F111D0884D985C02DB3
:104BC000F0CFF8011082DF91CF911F910F910895DE
:104BD0000F931F93CF93DF938B01FC01C281D3818D
:104BE000209771F0E881F9810190F081E02DB80102
:104BF000CE010995811106C00884D985C02DF0CF5A
:104C000080E001C081E0DF91CF911F910F91089565
:104C100080916A0781110DC082E08093660784E06D
:104C200080936707109269071092680781E080936C
:104C30006A0786E697E008955058BB27AA270ED04A
:104C400027C2F0D130F0F5D120F031F49F3F11F4BC
:104C50001EF4C0C10EF4E095E7FBB6C1E92F3AD2CD
:104C600080F3BA17620773078407950718F071F489
:104C70009EF552C20EF4E0950B2EBA2FA02D0B011B
:104C8000B90190010C01CA01A0011124FF27591B91
:104C900099F0593F50F4503E68F11A16F040A22F97
:104CA000232F342F4427585FF3CF46953795279508
:104CB000A795F0405395C9F77EF41F16BA0B620B07
:104CC000730B840BBAF09150A1F0FF0FBB1F661F4E
:104CD000771F881FC2F70EC0BA0F621F731F841F91
:104CE00048F4879577956795B795F7959E3F08F0B7
:104CF000B3CF9395880F08F09927EE0F9795879576
:104D0000089590D158F080E891E009F49EEF91D198
:104D100028F040E851E059F45EEF09C05BC1FCC1E6
:104D2000E92FE078D7D168F3092E052AC1F32617B9
:104D300037074807590738F00E2E07F8E02569F0C5
:104D4000E025E0640AC0EF6307F8009407FADB018E
:104D5000B9019D01DC01CA01AD01EF934AD098D1A0
:104D60000AD05F91552331F02BED3FE049E450FD2F
:104D700049EC63CF0895DF93DD27B92FBF7740E873
:104D80005FE31616170648075B0710F4D92FCFD13B
:104D90009F938F937F936F937CD2EAECF0E01DD1C9
:104DA00077D12F913F914F915F91D4D1DD2349F07D
:104DB0009058A2EA2AED3FE049EC5FE3D0785D2706
:104DC0004DDFDF9165C1DCD008F481E0089539D171
:104DD000E3956FC10CD05CC12CD140F023D130F0F1
:104DE00021F45F3F19F0F0C0511197C1F3C072D1A7
:104DF00098F39923C9F35523B1F3951B550BBB27A2
:104E0000AA2762177307840738F09F5F5F4F220F4E
:104E1000331F441FAA1FA9F333D00E2E3AF0E0E847
:104E200030D091505040E695001CCAF729D0FE2F93
:104E300027D0660F771F881FBB1F26173707480725
:104E4000AB07B0E809F0BB0B802DBF01FF279358DB
:104E50005F4F2AF09E3F510568F0B6C05EC15F3FCC
:104E6000ECF3983EDCF3869577956795B795F795C3
:104E70009F5FC9F7880F911D9695879597F90895BB
:104E8000E1E0660F771F881FBB1F62177307840757
:104E9000BA0720F0621B730B840BBA0BEE1F88F766
:104EA000E095089504D06894B11137C108951AD1DE
:104EB00088F09F5790F0B92F9927B751A0F0D1F003
:104EC000660F771F881F991F1AF0BA95C9F712C08D
:104ED000B13081F021D1B1E008951EC1672F782F44
:104EE0008827B85F39F0B93FCCF3869577956795F9
:104EF000B395D9F73EF490958095709561957F4F65
:104F00008F4F9F4F0895E89409C097FB3EF490950A
:104F10008095709561957F4F8F4F9F4F9923A9F092
:104F2000F92F96E9BB279395F69587957795679521
:104F3000B795F111F8CFFAF4BB0F11F460FF1BC065
:104F40006F5F7F4F8F4F9F4F16C0882311F096E9F8
:104F500011C0772321F09EE8872F762F05C06623A6
:104F600071F096E8862F70E060E02AF09A95660F5F
:104F7000771F881FDAF7880F9695879597F9089518
:104F8000990F0008550FAA0BE0E8FEEF161617065A
:104F9000E807F907C0F012161306E407F50798F0C2
:104FA000621B730B840B950B39F40A2661F0232BDB
:104FB000242B252B21F408950A2609F4A140A69557
:104FC0008FEF811D811D089597F99F6780E870E03C
:104FD00060E008959FEF80EC0895DF93CF931F93D7
:104FE0000F93FF92EF92DF927B018C01689405C0D2
:104FF000DA2EEF01AFD0FE01E894A591259135910D
:1050000045915591AEF3EF0129DEFE019701A8010C
:10501000DA9479F7DF90EF90FF900F911F91CF9185
:10502000DF91089500240A9416161706180609063B
:10503000089500240A94121613061406050608950E
:10504000C9CF50D0E8F3E894E0E0BB279F57F0F0D9
:105050002AED3FE049EC06C0EE0FBB0F661F771F3D
:10506000881F28F0B23A62077307840728F0B25A03
:10507000620B730B840BE3959A9572F7803830F4CA
:105080009A95BB0F661F771F881FD2F7904806C1FD
:10509000092E0394000C11F4882352F0BB0F40F446
:1050A000BF2B11F460FF04C06F5F7F4F8F4F9F4F86
:1050B0000895EF93E0FF06C0A2EA2AED3FE049EC35
:1050C0005FEBCCDDE5DF0F90039401FC9058E7EF38
:1050D000F0E0F7C057FD9058440F551F59F05F3F5F
:1050E00071F04795880F97FB991F61F09F3F79F00A
:1050F00087950895121613061406551FF2CF46958C
:10510000F1DF08C0161617061806991FF1CF86950D
:105110007105610508940895E894BB2766277727F1
:10512000CB0197F908952CDF08F48FEF08959B01C8
:10513000AC0160E070E080E89FE34CCE0BD0A8CFDC
:1051400071DF28F076DF18F0952309F03DCF42CFCC
:105150001124E3CFBFDFA0F3959FD1F3950F50E06B
:10516000551F629FF001729FBB27F00DB11D639F19
:10517000AA27F00DB11DAA1F649F6627B00DA11DBF
:10518000661F829F2227B00DA11D621F739FB00D65
:10519000A11D621F839FA00D611D221F749F3327D5
:1051A000A00D611D231F849F600D211D822F762F6E
:1051B0006A2F11249F5750408AF0E1F088234AF06B
:1051C000EE0FFF1FBB1F661F771F881F91505040B7
:1051D000A9F79E3F510570F0F7CE9FCF5F3FECF3EC
:1051E000983EDCF3869577956795B795F795E795A3
:1051F0009F5FC1F7FE2B880F911D9695879597F9B4
:1052000008959F931EDF0F9007FCEE5F52CF11F4BD
:105210000EF4E0CE41C066DFD0F39923D9F3CEF38C
:105220009F57550B87FF46D00024A0E640EA900127
:1052300080585695979528F4805C660F771F881FD5
:1052400020F026173707480730F4621B730B840BD6
:10525000202931294A2BA69517940794202531251A
:105260004A2758F7660F771F881F20F02617370741
:10527000480730F4620B730B840B200D311D411D68
:10528000A09581F7B901842F9158880F969587953D
:1052900008959B01AC0152CF9F3F31F0915020F413
:1052A000879577956795B795880F911D9695879502
:1052B00097F9089591505040660F771F881FD2F7D5
:1052C00008959F938F937F936F93FF93EF939B0129
:1052D000AC0134DFEF91FF9180DE2F913F914F9130
:1052E0005F912CCFDB018F939F930E94BE29BF91CA
:1052F000AF91A29F800D911DA39F900DB29F900D25
:1053000011240895AA1BBB1B51E107C0AA1FBB1F94
:10531000A617B70710F0A61BB70B881F991F5A9541
:10532000A9F780959095BC01CD010895A1E21A2EB0
:10533000AA1BBB1BFD010DC0AA1FBB1FEE1FFF1F39
:10534000A217B307E407F50720F0A21BB30BE40B89
:10535000F50B661F771F881F991F1A9469F76095D0
:105360007095809590959B01AC01BD01CF0108958A
:10537000EE0FFF1F0590F491E02D09940E94C929BA
:10538000A59F900DB49F900DA49F800D911D112499
:105390000895A29FB001B39FC001A39F700D811D0E
:1053A0001124911DB29F700D811D1124911D08952E
:1053B000EF920F931F93CF93DF93E80147FF02C053
:1053C00034E101C034E0E42FFF27E7FDF095F7FF5B
:1053D00003C0F195E195F109E32E022F2E2FAE01C6
:1053E0000E94BD2DCE01DF91CF911F910F91EF90C3
:1053F0000895CF93DF938230910510F482E090E01E
:10540000E0917407F091750720E030E0A0E0B0E093
:10541000309739F14081518148175907B8F0481742
:10542000590771F482819381109729F013969C9308
:105430008E9312972CC0909375078093740727C0A2
:105440002115310531F04217530718F0A901DB018E
:1054500001C0EF019A01BD01DF010280F381E02D5F
:10546000D7CF21153105F9F0281B390B2430310530
:1054700080F48A819B816115710521F0FB01938382
:10548000828304C09093750780937407FE0132965F
:1054900044C0FE01E20FF31F819391932250310922
:1054A000398328833AC02091720730917307232BE8
:1054B00041F420910201309103013093730720934E
:1054C000720720910001309101012115310541F44D
:1054D0002DB73EB74091040150910501241B350BB7
:1054E000E0917207F0917307E217F307A0F42E1B07
:1054F0003F0B2817390778F0AC014E5F5F4F241738
:10550000350748F04E0F5F1F5093730740937207A3
:105510008193919302C0E0E0F0E0CF01DF91CF9161
:105520000895CF93DF93009709F487C0FC01329769
:1055300013821282C0917407D0917507209781F46D
:1055400020813181280F391F809172079091730754
:105550008217930779F5F0937307E09372076DC094
:10556000DE0120E030E0AE17BF0750F412964D91F7
:105570005C9113979D014115510509F1DA01F3CFB3
:10558000B383A28340815181840F951F8A179B07A3
:1055900071F48D919C911197840F951F02969183C0
:1055A000808312968D919C9113979383828321150A
:1055B000310529F4F0937507E09374073EC0D901D3
:1055C0001396FC93EE9312974D915D91A40FB51F26
:1055D000EA17FB0779F480819181840F951F029669
:1055E000D90111969C938E938281938113969C93FB
:1055F0008E931297E0E0F0E08A819B81009719F08A
:10560000FE01EC01F9CFCE01029628813981820F8B
:10561000931F20917207309173072817390769F497
:10562000309729F4109275071092740702C0138204
:105630001282D0937307C0937207DF91CF910895C0
:10564000A0E0B0E0E6E2FBE20C942A30EC01CB01F2
:10565000209719F40E94F929B8C0FE01E60FF71F40
:105660009E0122503109E217F30708F4ACC0D901BA
:105670000D911C91119706171707B8F00530110509
:1056800008F49FC0A801445051094617570708F471
:1056900098C002501109061B170B019311936D93CB
:1056A0007C93CF010E94912A8CC05B01A01AB10AA1
:1056B0004E01800E911EA0917407B0917507612C68
:1056C000712C60E070E0109709F449C0A815B90585
:1056D000C9F5ED90FC901197670142E0C40ED11C12
:1056E000CA14DB0478F147018A189B08640142E080
:1056F000C40ED11C1296BC9012971396AC91B5E0D3
:10570000CB16D10440F0B282A38391828082D9016A
:105710008D939C9309C00E5F1F4F0E0D1F1DF90145
:1057200011830083EB2DFA2F6115710531F0DB0138
:105730001396FC93EE93129744C0F0937507E09391
:1057400074073FC06D917C9111976616770608F437
:105750003B01BD0112960D90BC91A02DB4CF60917C
:1057600072077091730768157905E9F46816790670
:10577000D0F440910001509101014115510541F4CF
:105780004DB75EB76091040170910501461B570B40
:10579000E417F507C0F4F0937307E0937207F9017B
:1057A000918380830EC00E94F9297C01009759F0F3
:1057B000A801BE010E94562DCE010E94912AC70168
:1057C00004C0CE0102C080E090E0CDB7DEB7EEE0CD
:1057D0000C9446302F923F925F926F927F928F92FD
:1057E0009F92AF92BF92CF92DF92EF92FF920F9370
:1057F0001F93CF93DF938B01EA016115710521F0AF
:10580000DB018C9311969C93209739F09E012250D6
:1058100031092332310508F0FBC07C016701BFEF7D
:10582000CB1ADB0A5601F7016080862D90E00E94BA
:10583000412D892B11F07601F1CFFDE26F120AC0E4
:10584000570182E0A80EB11CD70111966C90772405
:1058500073940BC0BBE26B1207C05701E2E0AE0EBF
:10586000B11CD70111966C90712CCE018F7E892BC3
:1058700089F4B0E36B1222C0F50180818F7D8835F9
:1058800041F56180F2E0AF0EB11C872D8260782E69
:10589000C0E1D0E0C830D105F1F04CF4C230D10500
:1058A00011F5C12CD12CE12CB0E4FB2E2FC0CA3055
:1058B000D10531F0C031D10521F115C0209751F744
:1058C000CAE0D0E0ACECCA2EDC2CEC2CACE0FA2E1A
:1058D0001DC02097F9F6C8E0D0E0C12CD12CE12CF6
:1058E000F0E1FF2E13C060E070E080E090E89E01E0
:1058F000442737FD4095542F0E94962969017A016B
:1059000005C0C12CD12CE12CE8E0FE2EF50160E0B1
:1059100020E030E0A9014E01AA2497FCA094BA2C03
:105920001F0170ED572E560CA9E0A51570F48FEBF2
:10593000860D8A3118F499EC592E06C08FE9860D30
:105940008A3130F589EA582E560C852D90E08C1757
:105950009D07F4F467FD18C0C216D306E406F506E9
:1059600080F0C501B4010E9472299B01AC01250D94
:10597000311D411D511D213031054105B0E85B0746
:1059800010F06FEF01C061E03196D1016C90C8CF8B
:10599000872D81700115110571F0662329F031976B
:1059A000D801ED93FC9307C071FE19C03297D8015E
:1059B000ED93FC9314C067FF12C0882329F020E008
:1059C00030E040E050E804C02FEF3FEF4FEF5FE7DB
:1059D00082E290E0909377078093760716C0882341
:1059E00041F050954095309521953F4F4F4F5F4F77
:1059F0000CC057FF0AC082E290E090937707809333
:105A000076072FEF3FEF4FEF5FE7B901CA0104C000
:105A100060E070E080E090E0DF91CF911F910F9106
:105A2000FF90EF90DF90CF90BF90AF909F908F90BE
:105A30007F906F905F903F902F90089581E090E06D
:105A4000F8940C945D30FC0188279927E894219103
:105A50002032E9F3293010F02E30C8F32B3241F018
:105A60002D3239F4689404C00E949B2D820F911D41
:105A7000219120532A30C0F31EF4909581959F4FB9
:105A800008959111D0C2803219F089508550D0F715
:105A90000895FB01DC0104C08D910190801921F46F
:105AA00041505040C8F7881B990B0895FB01DC0159
:105AB00002C001900D9241505040D8F70895DC018A
:105AC00001C06D9341505040E0F70895FB01DC01A7
:105AD0008D91019080190110D9F3990B0895FB0164
